{
  "contractName": "AuctionContract",
  "abi": [
    {
      "inputs": [
        {
          "internalType": "contract NFT",
          "name": "_nFT",
          "type": "address"
        }
      ],
      "stateMutability": "nonpayable",
      "type": "constructor"
    },
    {
      "anonymous": false,
      "inputs": [
        {
          "indexed": false,
          "internalType": "address",
          "name": "account",
          "type": "address"
        }
      ],
      "name": "Paused",
      "type": "event"
    },
    {
      "anonymous": false,
      "inputs": [
        {
          "indexed": false,
          "internalType": "address",
          "name": "account",
          "type": "address"
        }
      ],
      "name": "Unpaused",
      "type": "event"
    },
    {
      "inputs": [
        {
          "internalType": "uint256",
          "name": "",
          "type": "uint256"
        }
      ],
      "name": "auctions",
      "outputs": [
        {
          "internalType": "uint256",
          "name": "tokenId",
          "type": "uint256"
        },
        {
          "internalType": "uint256",
          "name": "Price",
          "type": "uint256"
        },
        {
          "internalType": "uint256",
          "name": "startTime",
          "type": "uint256"
        },
        {
          "internalType": "uint256",
          "name": "endTime",
          "type": "uint256"
        },
        {
          "internalType": "bool",
          "name": "result",
          "type": "bool"
        }
      ],
      "stateMutability": "view",
      "type": "function"
    },
    {
      "inputs": [
        {
          "internalType": "uint256",
          "name": "",
          "type": "uint256"
        }
      ],
      "name": "highestBids",
      "outputs": [
        {
          "internalType": "address payable",
          "name": "bidder",
          "type": "address"
        },
        {
          "internalType": "uint256",
          "name": "bid",
          "type": "uint256"
        },
        {
          "internalType": "uint256",
          "name": "lastBidTime",
          "type": "uint256"
        }
      ],
      "stateMutability": "view",
      "type": "function"
    },
    {
      "inputs": [],
      "name": "paused",
      "outputs": [
        {
          "internalType": "bool",
          "name": "",
          "type": "bool"
        }
      ],
      "stateMutability": "view",
      "type": "function"
    },
    {
      "inputs": [
        {
          "internalType": "uint256",
          "name": "_tokenId",
          "type": "uint256"
        },
        {
          "internalType": "uint256",
          "name": "_Price",
          "type": "uint256"
        },
        {
          "internalType": "uint256",
          "name": "_startTime",
          "type": "uint256"
        },
        {
          "internalType": "uint256",
          "name": "_endTime",
          "type": "uint256"
        }
      ],
      "name": "createAuction",
      "outputs": [],
      "stateMutability": "nonpayable",
      "type": "function"
    },
    {
      "inputs": [
        {
          "internalType": "uint256",
          "name": "_tokenId",
          "type": "uint256"
        }
      ],
      "name": "placeBid",
      "outputs": [],
      "stateMutability": "payable",
      "type": "function"
    },
    {
      "inputs": [
        {
          "internalType": "uint256",
          "name": "_tokenId",
          "type": "uint256"
        }
      ],
      "name": "cancelAuction",
      "outputs": [],
      "stateMutability": "nonpayable",
      "type": "function"
    },
    {
      "inputs": [],
      "name": "finalize",
      "outputs": [],
      "stateMutability": "nonpayable",
      "type": "function"
    },
    {
      "inputs": [
        {
          "internalType": "uint256",
          "name": "_tokenId",
          "type": "uint256"
        }
      ],
      "name": "withdraw",
      "outputs": [],
      "stateMutability": "nonpayable",
      "type": "function"
    }
  ],
  "bytecode": "0x608060405234801561001057600080fd5b5060405161093938038061093983398101604081905261002f9161005e565b6001600081905580546001600160a01b03909216610100026001600160a81b031990921691909117905561008c565b60006020828403121561006f578081fd5b81516001600160a01b0381168114610085578182fd5b9392505050565b61089e8061009b6000396000f3fe60806040526004361061007b5760003560e01c8063571a26a01161004e578063571a26a01461010f5780635c975abb1461014057806396b5a755146101625780639979ef45146101825761007b565b8063111cb258146100805780632e1a7d4d146100b8578063431f21da146100da5780634bb278f3146100fa575b600080fd5b34801561008c57600080fd5b506100a061009b366004610719565b610195565b6040516100af93929190610765565b60405180910390f35b3480156100c457600080fd5b506100d86100d3366004610719565b6101c1565b005b3480156100e657600080fd5b506100d86100f5366004610731565b6101fb565b34801561010657600080fd5b506100d8610343565b34801561011b57600080fd5b5061012f61012a366004610719565b610459565b6040516100af95949392919061081f565b34801561014c57600080fd5b5061015561048c565b6040516100af91906107aa565b34801561016e57600080fd5b506100d861017d366004610719565b610495565b6100d8610190366004610719565b61059b565b60026020819052600091825260409091208054600182015491909201546001600160a01b039092169183565b6000818152600260208190526040822080546001600160a01b031916815560018101839055908101829055906101f79080610671565b5050565b6040805160a0810182528581526020808201958652818301948552606082019384526001608083018181526000988952600392839052938820835181558751818301558651600282015585519281019290925583516004928301805491151560ff199283161790558254918201835591909752905160059096027f8a35acfbc15ff81a39ae7d344fd709f28e8600b4aa8c65c6b64bfe7fe36bd19b81019690965593517f8a35acfbc15ff81a39ae7d344fd709f28e8600b4aa8c65c6b64bfe7fe36bd19c86015591517f8a35acfbc15ff81a39ae7d344fd709f28e8600b4aa8c65c6b64bfe7fe36bd19d850155517f8a35acfbc15ff81a39ae7d344fd709f28e8600b4aa8c65c6b64bfe7fe36bd19e840155517f8a35acfbc15ff81a39ae7d344fd709f28e8600b4aa8c65c6b64bfe7fe36bd19f909201805492151592909116919091179055565b600080805260026020527fac33ff75c19e70fe83507db0d683fd3465c996598dc972688b7ace676c89077b80546001546040516331a9108f60e11b81526001600160a01b0392831692610100909204909116906323b872dd908290636352211e906103b2908890600401610816565b60206040518083038186803b1580156103ca57600080fd5b505afa1580156103de573d6000803e3d6000fd5b505050506040513d601f19601f8201168201806040525081019061040291906106f2565b83866040518463ffffffff1660e01b815260040161042293929190610786565b600060405180830381600087803b15801561043c57600080fd5b505af1158015610450573d6000803e3d6000fd5b50505050505050565b60036020819052600091825260409091208054600182015460028301549383015460049093015491939092909160ff1685565b60015460ff1690565b600080805260036020527f3617319a054d772f909f7c479a2cebe5066e836a939412e32403c99029b92f015442116104cc57600080fd5b600080805260036020527f3617319a054d772f909f7c479a2cebe5066e836a939412e32403c99029b92f0254421061050357600080fd5b600083815260026020526040902080546001600160a01b031615610563578054600182015461053b916001600160a01b031690610671565b6000848152600260208190526040822080546001600160a01b03191681556001810183905501555b50505060009081526003602081905260408220828155600181018390556002810183905590810191909155600401805460ff19169055565b600260005414156105c75760405162461bcd60e51b81526004016105be906107df565b60405180910390fd5b60026000556105d461048c565b156105f15760405162461bcd60e51b81526004016105be906107b5565b60008181526003602090815260408083206002909252822060018101549192349261061c90846106df565b82549091506001600160a01b0316156106495781546001830154610649916001600160a01b031690610671565b5080546001600160a01b03191633178155600180820192909255426002909101556000555050565b6000826001600160a01b03168260405161068a90610762565b60006040518083038185875af1925050503d80600081146106c7576040519150601f19603f3d011682016040523d82523d6000602084013e6106cc565b606091505b50509050806106da57600080fd5b505050565b60006106eb8284610844565b9392505050565b600060208284031215610703578081fd5b81516001600160a01b03811681146106eb578182fd5b60006020828403121561072a578081fd5b5035919050565b60008060008060808587031215610746578283fd5b5050823594602084013594506040840135936060013592509050565b90565b6001600160a01b039390931683526020830191909152604082015260600190565b6001600160a01b039384168152919092166020820152604081019190915260600190565b901515815260200190565b60208082526010908201526f14185d5cd8589b194e881c185d5cd95960821b604082015260600190565b6020808252601f908201527f5265656e7472616e637947756172643a207265656e7472616e742063616c6c00604082015260600190565b90815260200190565b9485526020850193909352604084019190915260608301521515608082015260a00190565b6000821982111561086357634e487b7160e01b81526011600452602481fd5b50019056fea2646970667358221220ec489a221e4a100f61125f8c45f87f08f4128d756661431a9c813087e8ed837d64736f6c63430008000033",
  "immutableReferences": {},
  "source": "// SPDX-License-Identifier: MIT\n\npragma solidity ^0.8.0;\n\n\nimport \"./NFT.sol\";\nimport \"./External/Pausable.sol\";\nimport \"./External/ReentrancyGuard.sol\";\nimport \"./External/SafeMath.sol\";\n\n\ncontract AuctionContract is ReentrancyGuard,Pausable {\n    \n    using SafeMath for uint256;\n    \n    NFT _NFT;\n    \n    \n    struct Auction {\n        \n      uint256 tokenId;\n      uint256 Price;\n      uint256 startTime;\n      uint256 endTime;\n      bool result;\n    }\n    \n    \n    struct HighestBid {\n        \n      address payable bidder;\n      uint256 bid;\n      uint256 lastBidTime;\n    \n    }\n    \n   \n   mapping(uint256 => HighestBid) public highestBids;\n    \n\n   mapping(uint256 => Auction) public auctions;\n   \n   \n   Auction[] internal NumAuctions;\n   \n   \n   \n   // modifiers\n   \n   \n    modifier onlyAfter {\n        \n       uint256 _tokenId;\n       \n       require (block.timestamp > auctions[_tokenId].startTime);\n       _;\n    }\n    \n   \n   \n    modifier onlyBefore {\n        \n        uint256 _tokenId;\n       \n       require (block.timestamp < auctions[_tokenId].endTime);\n       _;\n    }\n    \n    \n    \n   constructor(NFT _nFT) {\n       \n       _NFT = _nFT ;\n   } \n   \n   \n   function createAuction(\n      uint256 _tokenId,\n      uint256 _Price,\n      uint256 _startTime,\n      uint256 _endTime\n    ) public  {\n        \n        \n    Auction memory auction = Auction({\n        \n        tokenId:_tokenId,\n        Price : _Price,\n        startTime : _startTime,\n        endTime : _endTime,\n        result : true\n        \n    });\n    \n    auctions[_tokenId] = auction;\n    \n    NumAuctions.push(auction);\n        \n        \n    }  \n    \n    \n    \n    function placeBid(uint256 _tokenId) external payable nonReentrant() whenNotPaused {\n        \n        // check whether token exists\n        \n        Auction storage auction = auctions[_tokenId];\n\n        uint256 bidAmount = msg.value;\n\n        HighestBid storage highestBid = highestBids[_tokenId];\n        \n        // new bid\n        \n        uint256 newBid= highestBid.bid.add(bidAmount);\n       \n\n        if (highestBid.bidder != address(0)) {\n            \n            refund(highestBid.bidder, highestBid.bid);\n        }\n        \n        // updating highestBid\n\n        highestBid.bidder = payable(msg.sender);\n        highestBid.bid = bidAmount;\n        highestBid.lastBidTime = block.timestamp;\n\n    }\n\n\n   \n   \n   function cancelAuction(uint256 _tokenId) public onlyAfter onlyBefore {\n       \n        \n        HighestBid storage highestBid = highestBids[_tokenId];\n        \n        \n            if (highestBid.bidder != address(0)) {\n                \n                \n                // Refunding to highest bidder\n            \n                refund(highestBid.bidder, highestBid.bid);\n\n            \n                delete highestBids[_tokenId];\n            }\n\n        \n        delete auctions[_tokenId];\n\n       \n   }\n    \n    \n    function finalize() public {\n        \n        uint256 tokenId;\n        \n        HighestBid storage highestBid = highestBids[tokenId];\n        \n        address winner = highestBid.bidder;\n        \n        _NFT.transferFrom(_NFT.ownerOf(tokenId), winner, tokenId);\n\n    }\n    \n    \n    \n    function withdraw(uint256 _tokenId) public { \n        \n        HighestBid storage highestBid = highestBids[_tokenId];\n        \n        delete highestBids[_tokenId];\n        \n        refund(highestBid.bidder,highestBid.bid);\n\n    }\n    \n    \n    // Internal and private functions\n    \n    \n    \n    function refund(address payable _Bidder, uint256 _HighestBid) private {\n        \n        (bool success,) = _Bidder.call{value : _HighestBid}(\"\");\n        \n        require(success);\n        \n    } \n   \n    \n}",
  "sourcePath": "/home/gokulalex/NFT_MARKETPLACE/contracts/AuctionContract.sol",
  "compiler": {
    "name": "solc",
    "version": "0.8.0+commit.c7dfd78e.Emscripten.clang"
  },
  "schemaVersion": "3.3.1",
  "updatedAt": "2021-10-01T12:59:31.273Z",
  "devdoc": {
    "kind": "dev",
    "methods": {
      "paused()": {
        "details": "Returns true if the contract is paused, and false otherwise."
      }
    },
    "version": 1
  },
  "userdoc": {
    "kind": "user",
    "methods": {},
    "version": 1
  }
}