{
  "contractName": "MarketPlace",
  "abi": [
    {
      "inputs": [
        {
          "internalType": "contract NFT_Data",
          "name": "_NFTData",
          "type": "address"
        }
      ],
      "stateMutability": "nonpayable",
      "type": "constructor"
    },
    {
      "inputs": [
        {
          "internalType": "uint256",
          "name": "",
          "type": "uint256"
        }
      ],
      "name": "IdForSale",
      "outputs": [
        {
          "internalType": "bool",
          "name": "",
          "type": "bool"
        }
      ],
      "stateMutability": "view",
      "type": "function"
    },
    {
      "inputs": [],
      "name": "NftData",
      "outputs": [
        {
          "internalType": "contract NFT_Data",
          "name": "",
          "type": "address"
        }
      ],
      "stateMutability": "view",
      "type": "function"
    },
    {
      "inputs": [
        {
          "internalType": "uint256",
          "name": "",
          "type": "uint256"
        }
      ],
      "name": "Sale",
      "outputs": [
        {
          "internalType": "string",
          "name": "Type",
          "type": "string"
        },
        {
          "internalType": "address",
          "name": "seller",
          "type": "address"
        },
        {
          "internalType": "uint256",
          "name": "tokenId",
          "type": "uint256"
        },
        {
          "internalType": "uint256",
          "name": "price",
          "type": "uint256"
        },
        {
          "internalType": "string",
          "name": "status",
          "type": "string"
        }
      ],
      "stateMutability": "view",
      "type": "function"
    },
    {
      "inputs": [],
      "name": "Salecount",
      "outputs": [
        {
          "internalType": "uint256",
          "name": "",
          "type": "uint256"
        }
      ],
      "stateMutability": "view",
      "type": "function"
    },
    {
      "inputs": [
        {
          "internalType": "contract NFT",
          "name": "_NewNFT",
          "type": "address"
        },
        {
          "internalType": "uint256",
          "name": "_tokenId",
          "type": "uint256"
        }
      ],
      "name": "cancelSale",
      "outputs": [],
      "stateMutability": "nonpayable",
      "type": "function"
    },
    {
      "inputs": [
        {
          "internalType": "contract NFT",
          "name": "_NewNFT",
          "type": "address"
        },
        {
          "internalType": "string",
          "name": "_Type",
          "type": "string"
        },
        {
          "internalType": "uint256",
          "name": "_tokenId",
          "type": "uint256"
        },
        {
          "internalType": "uint256",
          "name": "_price",
          "type": "uint256"
        }
      ],
      "name": "sellNFT",
      "outputs": [
        {
          "internalType": "uint256",
          "name": "",
          "type": "uint256"
        }
      ],
      "stateMutability": "nonpayable",
      "type": "function"
    },
    {
      "inputs": [
        {
          "internalType": "contract NFT",
          "name": "_NFT",
          "type": "address"
        },
        {
          "internalType": "uint256",
          "name": "tokenId",
          "type": "uint256"
        }
      ],
      "name": "buyToken",
      "outputs": [
        {
          "internalType": "string",
          "name": "_status",
          "type": "string"
        }
      ],
      "stateMutability": "payable",
      "type": "function"
    }
  ],
  "bytecode": "0x608060405234801561001057600080fd5b50604051610dcf380380610dcf83398101604081905261002f91610068565b600180546001600160a01b039092166001600160a01b031992831681178255600060045560059190915560068054909216179055610096565b600060208284031215610079578081fd5b81516001600160a01b038116811461008f578182fd5b9392505050565b610d2a806100a56000396000f3fe6080604052600436106100705760003560e01c8063496ef3611161004e578063496ef361146100fa57806357437c161461010f57806368f8fc1014610131578063c0a8d68d1461015157610070565b80630282e5f31461007557806316f3a95b146100ab578063207f0979146100cd575b600080fd5b34801561008157600080fd5b50610095610090366004610a83565b610182565b6040516100a29190610b2f565b60405180910390f35b3480156100b757600080fd5b506100cb6100c6366004610917565b610197565b005b3480156100d957600080fd5b506100ed6100e8366004610881565b610224565b6040516100a29190610bdf565b34801561010657600080fd5b506100ed610377565b34801561011b57600080fd5b5061012461037d565b6040516100a29190610ac7565b61014461013f366004610917565b61038c565b6040516100a29190610b54565b34801561015d57600080fd5b5061017161016c366004610a83565b6105d5565b6040516100a2959493929190610b67565b60026020526000908152604090205460ff1681565b600081116101c05760405162461bcd60e51b81526004016101b790610bb5565b60405180910390fd5b6000818152600360205260408120906101d98282610722565b6001820180546001600160a01b031916905560006002830181905560038301819055610209906004840190610722565b50506000908152600260205260409020805460ff1916905550565b600060045460016102359190610c3a565b6004556040805160a08101825285815233602080830191909152818301869052606082018590528251808401845260068152656f6e53616c6560d01b81830152608083015260008681526003825292909220815180519293849361029c9284920190610761565b506020828101516001830180546001600160a01b0319166001600160a01b039092169190911790556040830151600283015560608301516003830155608083015180516102ef9260048501920190610761565b50505060008481526002602052604090819020805460ff19166001179055516323b872dd60e01b81526001600160a01b038716906323b872dd9061033b90339030908990600401610adb565b600060405180830381600087803b15801561035557600080fd5b505af1158015610369573d6000803e3d6000fd5b509598975050505050505050565b60045481565b6006546001600160a01b031681565b6006546040516306894ea760e51b815260609184916000916001600160a01b03169063d129d4e0906103c2908590600401610ac7565b60006040518083038186803b1580156103da57600080fd5b505afa1580156103ee573d6000803e3d6000fd5b505050506040513d6000823e601f3d908101601f191682016040526104169190810190610942565b602081015160e082015160405192935090918291906001600160a01b0383169082156108fc029083906000818181858888f1935050505015801561045e573d6000803e3d6000fd5b506040516323b872dd60e01b815233906001600160a01b038a16906323b872dd9061049190309085908d90600401610adb565b600060405180830381600087803b1580156104ab57600080fd5b505af11580156104bf573d6000803e3d6000fd5b5050600654604051636161a07d60e01b81526001600160a01b039091169250636161a07d91506104f5908c908590600401610b3a565b602060405180830381600087803b15801561050f57600080fd5b505af1158015610523573d6000803e3d6000fd5b505050506040513d601f19601f82011682018060405250810190610547919061085a565b5060065460405163fd1e6ffd60e01b81526001600160a01b039091169063fd1e6ffd90610578908990600401610aff565b60206040518083038186803b15801561059057600080fd5b505afa1580156105a4573d6000803e3d6000fd5b505050506040513d601f19601f820116820180604052508101906105c8919061085a565b5050505050505092915050565b6003602052600090815260409020805481906105f090610c8e565b80601f016020809104026020016040519081016040528092919081815260200182805461061c90610c8e565b80156106695780601f1061063e57610100808354040283529160200191610669565b820191906000526020600020905b81548152906001019060200180831161064c57829003601f168201915b50505060018401546002850154600386015460048701805496976001600160a01b03909416969295509093509061069f90610c8e565b80601f01602080910402602001604051908101604052809291908181526020018280546106cb90610c8e565b80156107185780601f106106ed57610100808354040283529160200191610718565b820191906000526020600020905b8154815290600101906020018083116106fb57829003601f168201915b5050505050905085565b50805461072e90610c8e565b6000825580601f10610740575061075e565b601f01602090049060005260206000209081019061075e91906107e5565b50565b82805461076d90610c8e565b90600052602060002090601f01602090048101928261078f57600085556107d5565b82601f106107a857805160ff19168380011785556107d5565b828001600101855582156107d5579182015b828111156107d55782518255916020019190600101906107ba565b506107e19291506107e5565b5090565b5b808211156107e157600081556001016107e6565b805161080581610cdf565b919050565b600082601f83011261081a578081fd5b815161082d61082882610c12565b610be8565b818152846020838601011115610841578283fd5b610852826020830160208701610c5e565b949350505050565b60006020828403121561086b578081fd5b8151801515811461087a578182fd5b9392505050565b60008060008060808587031215610896578283fd5b84356108a181610cdf565b9350602085013567ffffffffffffffff8111156108bc578384fd5b8501601f810187136108cc578384fd5b80356108da61082882610c12565b8181528860208385010111156108ee578586fd5b816020840160208301379081016020019490945250929591945050604083013592606001359150565b60008060408385031215610929578182fd5b823561093481610cdf565b946020939093013593505050565b600060208284031215610953578081fd5b815167ffffffffffffffff8082111561096a578283fd5b8184019150610140808387031215610980578384fd5b61098981610be8565b9050610994836107fa565b81526109a2602084016107fa565b6020820152604083015160408201526060830151828111156109c2578485fd5b6109ce8782860161080a565b6060830152506080830151828111156109e5578485fd5b6109f18782860161080a565b60808301525060a083015182811115610a08578485fd5b610a148782860161080a565b60a08301525060c083015182811115610a2b578485fd5b610a378782860161080a565b60c08301525060e083015160e08201526101008084015181830152506101208084015183811115610a66578586fd5b610a728882870161080a565b918301919091525095945050505050565b600060208284031215610a94578081fd5b5035919050565b60008151808452610ab3816020860160208601610c5e565b601f01601f19169290920160200192915050565b6001600160a01b0391909116815260200190565b6001600160a01b039384168152919092166020820152604081019190915260600190565b6001600160a01b03919091168152604060208201819052600490820152631cdbdb1960e21b606082015260800190565b901515815260200190565b6001600160a01b0392831681529116602082015260400190565b60006020825261087a6020830184610a9b565b600060a08252610b7a60a0830188610a9b565b6001600160a01b038716602084015260408301869052606083018590528281036080840152610ba98185610a9b565b98975050505050505050565b60208082526010908201526f125b9d985b1a59081d1bdad95b881a5960821b604082015260600190565b90815260200190565b60405181810167ffffffffffffffff81118282101715610c0a57610c0a610cc9565b604052919050565b600067ffffffffffffffff821115610c2c57610c2c610cc9565b50601f01601f191660200190565b60008219821115610c5957634e487b7160e01b81526011600452602481fd5b500190565b60005b83811015610c79578181015183820152602001610c61565b83811115610c88576000848401525b50505050565b600281046001821680610ca257607f821691505b60208210811415610cc357634e487b7160e01b600052602260045260246000fd5b50919050565b634e487b7160e01b600052604160045260246000fd5b6001600160a01b038116811461075e57600080fdfea26469706673582212207faf7c79b4ceb5890d9d5e0dd9a3cde8115968cd3993eb4435a9c4dcb961f03f64736f6c63430008000033",
  "immutableReferences": {},
  "source": "// SPDX-License-Identifier: MIT\n\npragma solidity ^0.8.0;\n\nimport \"./External/Ownable.sol\";\nimport \"./External/SafeMath.sol\";\nimport \"./NFT.sol\";\nimport \"./Data.sol\";\nimport \"./TokenSale.sol\";\nimport \"./External/ReentrancyGuard.sol\";\n\ncontract MarketPlace is TokenSale,ReentrancyGuard{\n    \n    using SafeMath for uint256;\n    \n    // address public market_place;\n    \n    NFT_Data public NftData;\n    \n    // constructor\n    \n     constructor(NFT_Data _NFTData)  TokenSale(_NFTData) {\n        \n       NftData = _NFTData;\n       \n       address payable market_place = payable (address(uint160(address(this))));\n    \n    }\n    \n    \n    function buyToken (NFT _NFT,uint256 tokenId) public payable returns(string memory _status) {\n        \n        // address\n\n        address New_Nft = address(_NFT);\n        \n        //fetching  \n        \n        NFT_Data.nft memory _newnft  = NftData.getNFTbyAddress(New_Nft);\n        \n        address  _seller = _newnft.owner;\n        \n        address payable seller = payable(_seller);\n        \n        uint256 amount = _newnft.price;\n        \n        // require(msg.value == amount ,\"please send exact amount\");\n        \n        seller.transfer(amount);\n        \n        address buyer = msg.sender;\n        \n        IERC721(_NFT).transferFrom(address(this),msg.sender,tokenId);\n\n        NftData.updateOwnership(_NFT,buyer);\n        \n        NftData.updatestatus(New_Nft,\"sold\");\n        \n        return _status;\n    }\n\n    \n    \n}\n\n",
  "sourcePath": "/home/gokulalex/NFT_MARKETPLACE/contracts/MarketPlace.sol",
  "compiler": {
    "name": "solc",
    "version": "0.8.0+commit.c7dfd78e.Emscripten.clang"
  },
  "schemaVersion": "3.3.1",
  "updatedAt": "2021-10-01T13:01:55.068Z",
  "devdoc": {
    "kind": "dev",
    "methods": {},
    "version": 1
  },
  "userdoc": {
    "kind": "user",
    "methods": {},
    "version": 1
  }
}