{
  "contractName": "NFT",
  "abi": [
    {
      "inputs": [
        {
          "internalType": "address",
          "name": "owner",
          "type": "address"
        },
        {
          "internalType": "string",
          "name": "name",
          "type": "string"
        },
        {
          "internalType": "string",
          "name": "symbol",
          "type": "string"
        },
        {
          "internalType": "string",
          "name": "_uri",
          "type": "string"
        }
      ],
      "stateMutability": "nonpayable",
      "type": "constructor"
    },
    {
      "anonymous": false,
      "inputs": [
        {
          "indexed": true,
          "internalType": "address",
          "name": "owner",
          "type": "address"
        },
        {
          "indexed": true,
          "internalType": "address",
          "name": "approved",
          "type": "address"
        },
        {
          "indexed": true,
          "internalType": "uint256",
          "name": "tokenId",
          "type": "uint256"
        }
      ],
      "name": "Approval",
      "type": "event"
    },
    {
      "anonymous": false,
      "inputs": [
        {
          "indexed": true,
          "internalType": "address",
          "name": "owner",
          "type": "address"
        },
        {
          "indexed": true,
          "internalType": "address",
          "name": "operator",
          "type": "address"
        },
        {
          "indexed": false,
          "internalType": "bool",
          "name": "approved",
          "type": "bool"
        }
      ],
      "name": "ApprovalForAll",
      "type": "event"
    },
    {
      "anonymous": false,
      "inputs": [
        {
          "indexed": true,
          "internalType": "address",
          "name": "previousOwner",
          "type": "address"
        },
        {
          "indexed": true,
          "internalType": "address",
          "name": "newOwner",
          "type": "address"
        }
      ],
      "name": "OwnershipTransferred",
      "type": "event"
    },
    {
      "anonymous": false,
      "inputs": [
        {
          "indexed": true,
          "internalType": "address",
          "name": "from",
          "type": "address"
        },
        {
          "indexed": true,
          "internalType": "address",
          "name": "to",
          "type": "address"
        },
        {
          "indexed": true,
          "internalType": "uint256",
          "name": "tokenId",
          "type": "uint256"
        }
      ],
      "name": "Transfer",
      "type": "event"
    },
    {
      "inputs": [
        {
          "internalType": "address",
          "name": "owner",
          "type": "address"
        }
      ],
      "name": "balanceOf",
      "outputs": [
        {
          "internalType": "uint256",
          "name": "",
          "type": "uint256"
        }
      ],
      "stateMutability": "view",
      "type": "function"
    },
    {
      "inputs": [
        {
          "internalType": "uint256",
          "name": "tokenId",
          "type": "uint256"
        }
      ],
      "name": "getApproved",
      "outputs": [
        {
          "internalType": "address",
          "name": "",
          "type": "address"
        }
      ],
      "stateMutability": "view",
      "type": "function"
    },
    {
      "inputs": [
        {
          "internalType": "address",
          "name": "owner",
          "type": "address"
        },
        {
          "internalType": "address",
          "name": "operator",
          "type": "address"
        }
      ],
      "name": "isApprovedForAll",
      "outputs": [
        {
          "internalType": "bool",
          "name": "",
          "type": "bool"
        }
      ],
      "stateMutability": "view",
      "type": "function"
    },
    {
      "inputs": [],
      "name": "name",
      "outputs": [
        {
          "internalType": "string",
          "name": "",
          "type": "string"
        }
      ],
      "stateMutability": "view",
      "type": "function"
    },
    {
      "inputs": [],
      "name": "owner",
      "outputs": [
        {
          "internalType": "address",
          "name": "",
          "type": "address"
        }
      ],
      "stateMutability": "view",
      "type": "function"
    },
    {
      "inputs": [
        {
          "internalType": "uint256",
          "name": "tokenId",
          "type": "uint256"
        }
      ],
      "name": "ownerOf",
      "outputs": [
        {
          "internalType": "address",
          "name": "",
          "type": "address"
        }
      ],
      "stateMutability": "view",
      "type": "function"
    },
    {
      "inputs": [],
      "name": "renounceOwnership",
      "outputs": [],
      "stateMutability": "nonpayable",
      "type": "function"
    },
    {
      "inputs": [
        {
          "internalType": "address",
          "name": "from",
          "type": "address"
        },
        {
          "internalType": "address",
          "name": "to",
          "type": "address"
        },
        {
          "internalType": "uint256",
          "name": "tokenId",
          "type": "uint256"
        }
      ],
      "name": "safeTransferFrom",
      "outputs": [],
      "stateMutability": "nonpayable",
      "type": "function"
    },
    {
      "inputs": [
        {
          "internalType": "address",
          "name": "from",
          "type": "address"
        },
        {
          "internalType": "address",
          "name": "to",
          "type": "address"
        },
        {
          "internalType": "uint256",
          "name": "tokenId",
          "type": "uint256"
        },
        {
          "internalType": "bytes",
          "name": "_data",
          "type": "bytes"
        }
      ],
      "name": "safeTransferFrom",
      "outputs": [],
      "stateMutability": "nonpayable",
      "type": "function"
    },
    {
      "inputs": [
        {
          "internalType": "address",
          "name": "operator",
          "type": "address"
        },
        {
          "internalType": "bool",
          "name": "approved",
          "type": "bool"
        }
      ],
      "name": "setApprovalForAll",
      "outputs": [],
      "stateMutability": "nonpayable",
      "type": "function"
    },
    {
      "inputs": [
        {
          "internalType": "bytes4",
          "name": "interfaceId",
          "type": "bytes4"
        }
      ],
      "name": "supportsInterface",
      "outputs": [
        {
          "internalType": "bool",
          "name": "",
          "type": "bool"
        }
      ],
      "stateMutability": "view",
      "type": "function"
    },
    {
      "inputs": [],
      "name": "symbol",
      "outputs": [
        {
          "internalType": "string",
          "name": "",
          "type": "string"
        }
      ],
      "stateMutability": "view",
      "type": "function"
    },
    {
      "inputs": [
        {
          "internalType": "uint256",
          "name": "tokenId",
          "type": "uint256"
        }
      ],
      "name": "tokenURI",
      "outputs": [
        {
          "internalType": "string",
          "name": "",
          "type": "string"
        }
      ],
      "stateMutability": "view",
      "type": "function"
    },
    {
      "inputs": [
        {
          "internalType": "address",
          "name": "newOwner",
          "type": "address"
        }
      ],
      "name": "transferOwnership",
      "outputs": [],
      "stateMutability": "nonpayable",
      "type": "function"
    },
    {
      "inputs": [
        {
          "internalType": "address",
          "name": "to",
          "type": "address"
        },
        {
          "internalType": "string",
          "name": "tokenURI",
          "type": "string"
        }
      ],
      "name": "mint",
      "outputs": [
        {
          "internalType": "uint256",
          "name": "",
          "type": "uint256"
        }
      ],
      "stateMutability": "nonpayable",
      "type": "function"
    },
    {
      "inputs": [
        {
          "internalType": "address",
          "name": "to",
          "type": "address"
        },
        {
          "internalType": "uint256",
          "name": "tokenId",
          "type": "uint256"
        }
      ],
      "name": "approve",
      "outputs": [],
      "stateMutability": "nonpayable",
      "type": "function"
    },
    {
      "inputs": [
        {
          "internalType": "address",
          "name": "from",
          "type": "address"
        },
        {
          "internalType": "address",
          "name": "to",
          "type": "address"
        },
        {
          "internalType": "uint256",
          "name": "tokenId",
          "type": "uint256"
        }
      ],
      "name": "transferFrom",
      "outputs": [],
      "stateMutability": "nonpayable",
      "type": "function"
    }
  ],
  "bytecode": "0x60806040523480156200001157600080fd5b5060405162001e6b38038062001e6b8339810160408190526200003491620003f3565b8251839083906200004d906000906020850190620002a2565b50805162000063906001906020840190620002a2565b505050600062000078620000dd60201b60201c565b600780546001600160a01b0319166001600160a01b038316908117909155604051919250906000907f8be0079c531659141344cd1fd0a4f28419497f9722a3daafe3b4186f6b6457e0908290a350620000d28482620000e1565b5050505050620005d2565b3390565b6000620000fa60086200013460201b620008321760201c565b60006200011360086200013d60201b6200083b1760201c565b905062000121848262000141565b6200012d818462000235565b9392505050565b80546001019055565b5490565b6001600160a01b038216620001735760405162461bcd60e51b81526004016200016a9062000525565b60405180910390fd5b6200017e8162000285565b156200019e5760405162461bcd60e51b81526004016200016a90620004a0565b620001ac6000838362000280565b6001600160a01b0382166000908152600360205260408120805460019290620001d79084906200055a565b909155505060008181526002602052604080822080546001600160a01b0319166001600160a01b03861690811790915590518392907fddf252ad1be2c89b69c2b068fc378daa952ba7f163c4a11628f55a4df523b3ef908290a45050565b620002408262000285565b6200025f5760405162461bcd60e51b81526004016200016a90620004d7565b600082815260066020908152604090912082516200028092840190620002a2565b505050565b6000908152600260205260409020546001600160a01b0316151590565b828054620002b0906200057f565b90600052602060002090601f016020900481019282620002d457600085556200031f565b82601f10620002ef57805160ff19168380011785556200031f565b828001600101855582156200031f579182015b828111156200031f57825182559160200191906001019062000302565b506200032d92915062000331565b5090565b5b808211156200032d576000815560010162000332565b600082601f83011262000359578081fd5b81516001600160401b0380821115620003765762000376620005bc565b6040516020601f8401601f19168201810183811183821017156200039e576200039e620005bc565b6040528382528584018101871015620003b5578485fd5b8492505b83831015620003d85785830181015182840182015291820191620003b9565b83831115620003e957848185840101525b5095945050505050565b6000806000806080858703121562000409578384fd5b84516001600160a01b038116811462000420578485fd5b60208601519094506001600160401b03808211156200043d578485fd5b6200044b8883890162000348565b9450604087015191508082111562000461578384fd5b6200046f8883890162000348565b9350606087015191508082111562000485578283fd5b50620004948782880162000348565b91505092959194509250565b6020808252601c908201527f4552433732313a20746f6b656e20616c7265616479206d696e74656400000000604082015260600190565b6020808252602e908201527f45524337323155524953746f726167653a2055524920736574206f66206e6f6e60408201526d32bc34b9ba32b73a103a37b5b2b760911b606082015260800190565b6020808252818101527f4552433732313a206d696e7420746f20746865207a65726f2061646472657373604082015260600190565b600082198211156200057a57634e487b7160e01b81526011600452602481fd5b500190565b6002810460018216806200059457607f821691505b60208210811415620005b657634e487b7160e01b600052602260045260246000fd5b50919050565b634e487b7160e01b600052604160045260246000fd5b61188980620005e26000396000f3fe608060405234801561001057600080fd5b506004361061010b5760003560e01c8063715018a6116100a2578063b88d4fde11610071578063b88d4fde14610207578063c87b56dd1461021a578063d0def5211461022d578063e985e9c514610240578063f2fde38b146102535761010b565b8063715018a6146101dc5780638da5cb5b146101e457806395d89b41146101ec578063a22cb465146101f45761010b565b806323b872dd116100de57806323b872dd1461018357806342842e0e146101965780636352211e146101a957806370a08231146101bc5761010b565b806301ffc9a71461011057806306fdde0314610139578063081812fc1461014e578063095ea7b31461016e575b600080fd5b61012361011e366004611148565b610266565b6040516101309190611244565b60405180910390f35b6101416102ae565b604051610130919061124f565b61016161015c366004611180565b610340565b60405161013091906111f3565b61018161017c36600461111f565b61038c565b005b610181610191366004610fd2565b610412565b6101816101a4366004610fd2565b61044a565b6101616101b7366004611180565b610465565b6101cf6101ca366004610f86565b61049a565b6040516101309190611716565b6101816104de565b610161610567565b610141610576565b610181610202366004611086565b610585565b61018161021536600461100d565b610653565b610141610228366004611180565b610692565b6101cf61023b3660046110c0565b610715565b61012361024e366004610fa0565b610743565b610181610261366004610f86565b610771565b60006001600160e01b031982166380ac58cd60e01b148061029757506001600160e01b03198216635b5e139f60e01b145b806102a657506102a68261083f565b90505b919050565b6060600080546102bd9061178e565b80601f01602080910402602001604051908101604052809291908181526020018280546102e99061178e565b80156103365780601f1061030b57610100808354040283529160200191610336565b820191906000526020600020905b81548152906001019060200180831161031957829003601f168201915b5050505050905090565b600061034b82610858565b6103705760405162461bcd60e51b81526004016103679061156b565b60405180910390fd5b506000908152600460205260409020546001600160a01b031690565b600061039782610465565b9050806001600160a01b0316836001600160a01b031614156103cb5760405162461bcd60e51b815260040161036790611684565b336001600160a01b03821614806103e757506103e78133610743565b6104035760405162461bcd60e51b8152600401610367906113f8565b61040d8383610875565b505050565b61042361041d6108e3565b826108e7565b61043f5760405162461bcd60e51b8152600401610367906116c5565b61040d838383610978565b61040d83838360405180602001604052806000815250610653565b6000818152600260205260408120546001600160a01b0316806102a65760405162461bcd60e51b81526004016103679061149f565b60006001600160a01b0382166104c25760405162461bcd60e51b815260040161036790611455565b506001600160a01b031660009081526003602052604090205490565b6104e66108e3565b6001600160a01b03166104f7610567565b6001600160a01b03161461051d5760405162461bcd60e51b8152600401610367906115b7565b6007546040516000916001600160a01b0316907f8be0079c531659141344cd1fd0a4f28419497f9722a3daafe3b4186f6b6457e0908390a3600780546001600160a01b0319169055565b6007546001600160a01b031690565b6060600180546102bd9061178e565b61058d6108e3565b6001600160a01b0316826001600160a01b031614156105be5760405162461bcd60e51b815260040161036790611375565b80600560006105cb6108e3565b6001600160a01b03908116825260208083019390935260409182016000908120918716808252919093529120805460ff19169215159290921790915561060f6108e3565b6001600160a01b03167f17307eab39ab6107e8899845ad3d59bd9653f200f220920489ca2b5937696c31836040516106479190611244565b60405180910390a35050565b61066461065e6108e3565b836108e7565b6106805760405162461bcd60e51b8152600401610367906116c5565b61068c84848484610aa5565b50505050565b606061069d82610858565b6106b95760405162461bcd60e51b815260040161036790611635565b60006106c3610ad8565b905060008151116106e3576040518060200160405280600081525061070e565b806106ed84610b07565b6040516020016106fe9291906111c4565b6040516020818303038152906040525b9392505050565b60006107216008610832565b600061072d600861083b565b90506107398482610c22565b61070e8184610d01565b6001600160a01b03918216600090815260056020908152604080832093909416825291909152205460ff1690565b6107796108e3565b6001600160a01b031661078a610567565b6001600160a01b0316146107b05760405162461bcd60e51b8152600401610367906115b7565b6001600160a01b0381166107d65760405162461bcd60e51b8152600401610367906112b4565b6007546040516001600160a01b038084169216907f8be0079c531659141344cd1fd0a4f28419497f9722a3daafe3b4186f6b6457e090600090a3600780546001600160a01b0319166001600160a01b0392909216919091179055565b80546001019055565b5490565b6001600160e01b031981166301ffc9a760e01b14919050565b6000908152600260205260409020546001600160a01b0316151590565b600081815260046020526040902080546001600160a01b0319166001600160a01b03841690811790915581906108aa82610465565b6001600160a01b03167f8c5be1e5ebec7d5bd14f71427d1e84f3dd0314c0f7b2291e5b200ac8c7c3b92560405160405180910390a45050565b3390565b6000806108f383610465565b6001600160a01b0316141561091a5760405162461bcd60e51b8152600401610367906113ac565b600061092583610465565b9050806001600160a01b0316846001600160a01b031614806109605750836001600160a01b031661095584610340565b6001600160a01b0316145b8061097057506109708185610743565b949350505050565b826001600160a01b031661098b82610465565b6001600160a01b0316146109b15760405162461bcd60e51b8152600401610367906115ec565b6001600160a01b0382166109d75760405162461bcd60e51b815260040161036790611331565b6109e283838361040d565b6109ed600082610875565b6001600160a01b0383166000908152600360205260408120805460019290610a1690849061174b565b90915550506001600160a01b0382166000908152600360205260408120805460019290610a4490849061171f565b909155505060008181526002602052604080822080546001600160a01b0319166001600160a01b0386811691821790925591518493918716917fddf252ad1be2c89b69c2b068fc378daa952ba7f163c4a11628f55a4df523b3ef91a4505050565b610ab0848484610978565b610abc84848484610d45565b61068c5760405162461bcd60e51b815260040161036790611262565b60408051808201909152601581527468747470733a2f2f697066732e696f2f697066732f60581b602082015290565b606081610b2c57506040805180820190915260018152600360fc1b60208201526102a9565b8160005b8115610b565780610b40816117c9565b9150610b4f9050600a83611737565b9150610b30565b60008167ffffffffffffffff811115610b7f57634e487b7160e01b600052604160045260246000fd5b6040519080825280601f01601f191660200182016040528015610ba9576020820181803683370190505b5090505b841561097057610bbe60018361174b565b9150610bcb600a866117e4565b610bd690603061171f565b60f81b818381518110610bf957634e487b7160e01b600052603260045260246000fd5b60200101906001600160f81b031916908160001a905350610c1b600a86611737565b9450610bad565b6001600160a01b038216610c485760405162461bcd60e51b815260040161036790611536565b610c5181610858565b15610c6e5760405162461bcd60e51b8152600401610367906112fa565b610c7a6000838361040d565b6001600160a01b0382166000908152600360205260408120805460019290610ca390849061171f565b909155505060008181526002602052604080822080546001600160a01b0319166001600160a01b03861690811790915590518392907fddf252ad1be2c89b69c2b068fc378daa952ba7f163c4a11628f55a4df523b3ef908290a45050565b610d0a82610858565b610d265760405162461bcd60e51b8152600401610367906114e8565b6000828152600660209081526040909120825161040d92840190610e66565b6000610d59846001600160a01b0316610e60565b15610e5557836001600160a01b031663150b7a02610d756108e3565b8786866040518563ffffffff1660e01b8152600401610d979493929190611207565b602060405180830381600087803b158015610db157600080fd5b505af1925050508015610de1575060408051601f3d908101601f19168201909252610dde91810190611164565b60015b610e3b573d808015610e0f576040519150601f19603f3d011682016040523d82523d6000602084013e610e14565b606091505b508051610e335760405162461bcd60e51b815260040161036790611262565b805181602001fd5b6001600160e01b031916630a85bd0160e11b149050610970565b506001949350505050565b3b151590565b828054610e729061178e565b90600052602060002090601f016020900481019282610e945760008555610eda565b82601f10610ead57805160ff1916838001178555610eda565b82800160010185558215610eda579182015b82811115610eda578251825591602001919060010190610ebf565b50610ee6929150610eea565b5090565b5b80821115610ee65760008155600101610eeb565b600067ffffffffffffffff80841115610f1a57610f1a611824565b604051601f8501601f191681016020018281118282101715610f3e57610f3e611824565b604052848152915081838501861015610f5657600080fd5b8484602083013760006020868301015250509392505050565b80356001600160a01b03811681146102a957600080fd5b600060208284031215610f97578081fd5b61070e82610f6f565b60008060408385031215610fb2578081fd5b610fbb83610f6f565b9150610fc960208401610f6f565b90509250929050565b600080600060608486031215610fe6578081fd5b610fef84610f6f565b9250610ffd60208501610f6f565b9150604084013590509250925092565b60008060008060808587031215611022578081fd5b61102b85610f6f565b935061103960208601610f6f565b925060408501359150606085013567ffffffffffffffff81111561105b578182fd5b8501601f8101871361106b578182fd5b61107a87823560208401610eff565b91505092959194509250565b60008060408385031215611098578182fd5b6110a183610f6f565b9150602083013580151581146110b5578182fd5b809150509250929050565b600080604083850312156110d2578182fd5b6110db83610f6f565b9150602083013567ffffffffffffffff8111156110f6578182fd5b8301601f81018513611106578182fd5b61111585823560208401610eff565b9150509250929050565b60008060408385031215611131578182fd5b61113a83610f6f565b946020939093013593505050565b600060208284031215611159578081fd5b813561070e8161183a565b600060208284031215611175578081fd5b815161070e8161183a565b600060208284031215611191578081fd5b5035919050565b600081518084526111b0816020860160208601611762565b601f01601f19169290920160200192915050565b600083516111d6818460208801611762565b8351908301906111ea818360208801611762565b01949350505050565b6001600160a01b0391909116815260200190565b6001600160a01b038581168252841660208201526040810183905260806060820181905260009061123a90830184611198565b9695505050505050565b901515815260200190565b60006020825261070e6020830184611198565b60208082526032908201527f4552433732313a207472616e7366657220746f206e6f6e20455243373231526560408201527131b2b4bb32b91034b6b83632b6b2b73a32b960711b606082015260800190565b60208082526026908201527f4f776e61626c653a206e6577206f776e657220697320746865207a65726f206160408201526564647265737360d01b606082015260800190565b6020808252601c908201527f4552433732313a20746f6b656e20616c7265616479206d696e74656400000000604082015260600190565b60208082526024908201527f4552433732313a207472616e7366657220746f20746865207a65726f206164646040820152637265737360e01b606082015260800190565b60208082526019908201527f4552433732313a20617070726f766520746f2063616c6c657200000000000000604082015260600190565b6020808252602c908201527f4552433732313a206f70657261746f7220717565727920666f72206e6f6e657860408201526b34b9ba32b73a103a37b5b2b760a11b606082015260800190565b60208082526038908201527f4552433732313a20617070726f76652063616c6c6572206973206e6f74206f7760408201527f6e6572206e6f7220617070726f76656420666f7220616c6c0000000000000000606082015260800190565b6020808252602a908201527f4552433732313a2062616c616e636520717565727920666f7220746865207a65604082015269726f206164647265737360b01b606082015260800190565b60208082526029908201527f4552433732313a206f776e657220717565727920666f72206e6f6e657869737460408201526832b73a103a37b5b2b760b91b606082015260800190565b6020808252602e908201527f45524337323155524953746f726167653a2055524920736574206f66206e6f6e60408201526d32bc34b9ba32b73a103a37b5b2b760911b606082015260800190565b6020808252818101527f4552433732313a206d696e7420746f20746865207a65726f2061646472657373604082015260600190565b6020808252602c908201527f4552433732313a20617070726f76656420717565727920666f72206e6f6e657860408201526b34b9ba32b73a103a37b5b2b760a11b606082015260800190565b6020808252818101527f4f776e61626c653a2063616c6c6572206973206e6f7420746865206f776e6572604082015260600190565b60208082526029908201527f4552433732313a207472616e73666572206f6620746f6b656e2074686174206960408201526839903737ba1037bbb760b91b606082015260800190565b6020808252602f908201527f4552433732314d657461646174613a2055524920717565727920666f72206e6f60408201526e3732bc34b9ba32b73a103a37b5b2b760891b606082015260800190565b60208082526021908201527f4552433732313a20617070726f76616c20746f2063757272656e74206f776e656040820152603960f91b606082015260800190565b60208082526031908201527f4552433732313a207472616e736665722063616c6c6572206973206e6f74206f6040820152701ddb995c881b9bdc88185c1c1c9bdd9959607a1b606082015260800190565b90815260200190565b60008219821115611732576117326117f8565b500190565b6000826117465761174661180e565b500490565b60008282101561175d5761175d6117f8565b500390565b60005b8381101561177d578181015183820152602001611765565b8381111561068c5750506000910152565b6002810460018216806117a257607f821691505b602082108114156117c357634e487b7160e01b600052602260045260246000fd5b50919050565b60006000198214156117dd576117dd6117f8565b5060010190565b6000826117f3576117f361180e565b500690565b634e487b7160e01b600052601160045260246000fd5b634e487b7160e01b600052601260045260246000fd5b634e487b7160e01b600052604160045260246000fd5b6001600160e01b03198116811461185057600080fd5b5056fea26469706673582212201685cfe004a8d75405971c26066bcd7ef464fee8e98f1f38952eb7815279bd8964736f6c63430008000033",
  "immutableReferences": {},
  "source": "// SPDX-License-Identifier: MIT\n\npragma solidity ^0.8.0;\n\nimport \"./External/ERC721.sol\";\nimport \"./External/Counters.sol\";\nimport \"./External/SafeMath.sol\";\nimport \"./External/Ownable.sol\";\n\ncontract NFT is ERC721,Ownable {\n\n    using SafeMath for uint256;\n\n    using Counters for Counters.Counter;\n  \n    Counters.Counter internal tokenIds;\n    \n    \n    // constructor\n\n    \n    constructor (address owner,string memory name, string memory symbol,string memory _uri) ERC721(name, symbol) {\n      \n      mint(owner,_uri);        //  minting token\n      \n    }\n   \n   \n   //  Minting a token\n   \n   \n    function mint(address to, string memory tokenURI) public returns (uint256) {\n   \n       tokenIds.increment();                    // incrementing tokenId   \n\n       uint256 tokenId = tokenIds.current();\n      \n       _mint(to, tokenId);                      // mint\n\n       _setTokenURI(tokenId, tokenURI);         // setting tokenURI\n\n        return tokenId;                         // tokenId of an nft \n    \n    }\n    \n    \n    // approve \n    \n    \n    function approve(address to, uint256 tokenId) public virtual override {\n        \n        address owner = ERC721.ownerOf(tokenId);\n        \n        require(to != owner, \"ERC721: approval to current owner\");\n        \n        require(msg.sender == owner || isApprovedForAll(owner, msg.sender),\"ERC721: approve caller is not owner nor approved for all\");\n        \n        _approve(to, tokenId);\n    }\n    \n    \n    // transferFrom\n    \n    \n    function transferFrom(address from,address to,uint256 tokenId ) public virtual override {\n\n        require(_isApprovedOrOwner(_msgSender(), tokenId), \"ERC721: transfer caller is not owner nor approved\");\n\n        _transfer(from, to, tokenId);\n    }\n    \n    \n    // Internal function\n    \n    \n    // is ApprovedOrOwner\n    \n    \n    function _isApprovedOrOwner(address spender, uint256 tokenId) internal view virtual override returns (bool) {\n        \n        require(ERC721.ownerOf(tokenId)!=address(0), \"ERC721: operator query for nonexistent token\");\n        \n        address owner = ERC721.ownerOf(tokenId);\n       \n        return (spender == owner || getApproved(tokenId) == spender || isApprovedForAll(owner, spender));\n    }\n\n\n   // base tokenURI\n    \n    \n    function _baseURI() internal view virtual override returns (string memory) {\n        \n        return \"https://ipfs.io/ipfs/\";\n    }\n\n    \n    \n}   ",
  "sourcePath": "/home/gokulalex/NFT_MARKETPLACE/contracts/NFT.sol",
  "compiler": {
    "name": "solc",
    "version": "0.8.0+commit.c7dfd78e.Emscripten.clang"
  },
  "schemaVersion": "3.3.1",
  "updatedAt": "2021-10-01T13:01:59.837Z",
  "devdoc": {
    "kind": "dev",
    "methods": {
      "approve(address,uint256)": {
        "details": "See {IERC721-approve}."
      },
      "balanceOf(address)": {
        "details": "See {IERC721-balanceOf}."
      },
      "getApproved(uint256)": {
        "details": "See {IERC721-getApproved}."
      },
      "isApprovedForAll(address,address)": {
        "details": "See {IERC721-isApprovedForAll}."
      },
      "name()": {
        "details": "See {IERC721Metadata-name}."
      },
      "owner()": {
        "details": "Returns the address of the current owner."
      },
      "ownerOf(uint256)": {
        "details": "See {IERC721-ownerOf}."
      },
      "renounceOwnership()": {
        "details": "Leaves the contract without owner. It will not be possible to call `onlyOwner` functions anymore. Can only be called by the current owner. NOTE: Renouncing ownership will leave the contract without an owner, thereby removing any functionality that is only available to the owner."
      },
      "safeTransferFrom(address,address,uint256)": {
        "details": "See {IERC721-safeTransferFrom}."
      },
      "safeTransferFrom(address,address,uint256,bytes)": {
        "details": "See {IERC721-safeTransferFrom}."
      },
      "setApprovalForAll(address,bool)": {
        "details": "See {IERC721-setApprovalForAll}."
      },
      "supportsInterface(bytes4)": {
        "details": "See {IERC165-supportsInterface}."
      },
      "symbol()": {
        "details": "See {IERC721Metadata-symbol}."
      },
      "tokenURI(uint256)": {
        "details": "See {IERC721Metadata-tokenURI}."
      },
      "transferFrom(address,address,uint256)": {
        "details": "See {IERC721-transferFrom}."
      },
      "transferOwnership(address)": {
        "details": "Transfers ownership of the contract to a new account (`newOwner`). Can only be called by the current owner."
      }
    },
    "version": 1
  },
  "userdoc": {
    "kind": "user",
    "methods": {},
    "version": 1
  }
}