{
  "contractName": "NFTData",
  "abi": [
    {
      "inputs": [],
      "stateMutability": "nonpayable",
      "type": "constructor"
    },
    {
      "anonymous": false,
      "inputs": [
        {
          "indexed": false,
          "internalType": "contract NFT",
          "name": "_NFT",
          "type": "address"
        },
        {
          "indexed": false,
          "internalType": "address",
          "name": "owner",
          "type": "address"
        },
        {
          "indexed": false,
          "internalType": "string",
          "name": "name",
          "type": "string"
        },
        {
          "indexed": false,
          "internalType": "string",
          "name": "Type",
          "type": "string"
        }
      ],
      "name": "NFTCreated",
      "type": "event"
    },
    {
      "anonymous": false,
      "inputs": [
        {
          "indexed": false,
          "internalType": "contract NFT",
          "name": "_NFT",
          "type": "address"
        },
        {
          "indexed": false,
          "internalType": "uint256",
          "name": "tokenId",
          "type": "uint256"
        },
        {
          "indexed": false,
          "internalType": "address",
          "name": "_newOwner",
          "type": "address"
        }
      ],
      "name": "OwnershipUpdated",
      "type": "event"
    },
    {
      "anonymous": false,
      "inputs": [
        {
          "indexed": false,
          "internalType": "contract NFT",
          "name": "_NFT",
          "type": "address"
        },
        {
          "indexed": false,
          "internalType": "uint256",
          "name": "tokenId",
          "type": "uint256"
        },
        {
          "indexed": false,
          "internalType": "string",
          "name": "_status",
          "type": "string"
        }
      ],
      "name": "statusUpdated",
      "type": "event"
    },
    {
      "inputs": [
        {
          "internalType": "uint256",
          "name": "",
          "type": "uint256"
        }
      ],
      "name": "Allnfts",
      "outputs": [
        {
          "internalType": "contract NFT",
          "name": "_NFT",
          "type": "address"
        },
        {
          "internalType": "address",
          "name": "owner",
          "type": "address"
        },
        {
          "internalType": "uint256",
          "name": "tokenId",
          "type": "uint256"
        },
        {
          "internalType": "string",
          "name": "NFTtype",
          "type": "string"
        },
        {
          "internalType": "string",
          "name": "name",
          "type": "string"
        },
        {
          "internalType": "string",
          "name": "uri",
          "type": "string"
        },
        {
          "internalType": "string",
          "name": "description",
          "type": "string"
        },
        {
          "internalType": "uint256",
          "name": "price",
          "type": "uint256"
        },
        {
          "internalType": "uint256",
          "name": "timestamp",
          "type": "uint256"
        },
        {
          "internalType": "string",
          "name": "status",
          "type": "string"
        }
      ],
      "stateMutability": "view",
      "type": "function"
    },
    {
      "inputs": [
        {
          "internalType": "uint256",
          "name": "",
          "type": "uint256"
        }
      ],
      "name": "NFT_addresses",
      "outputs": [
        {
          "internalType": "address",
          "name": "",
          "type": "address"
        }
      ],
      "stateMutability": "view",
      "type": "function"
    },
    {
      "inputs": [
        {
          "internalType": "uint256",
          "name": "",
          "type": "uint256"
        }
      ],
      "name": "Owners",
      "outputs": [
        {
          "internalType": "address",
          "name": "",
          "type": "address"
        }
      ],
      "stateMutability": "view",
      "type": "function"
    },
    {
      "inputs": [
        {
          "internalType": "address",
          "name": "",
          "type": "address"
        }
      ],
      "name": "balances",
      "outputs": [
        {
          "internalType": "uint256",
          "name": "",
          "type": "uint256"
        }
      ],
      "stateMutability": "view",
      "type": "function"
    },
    {
      "inputs": [
        {
          "internalType": "uint256",
          "name": "",
          "type": "uint256"
        }
      ],
      "name": "creators",
      "outputs": [
        {
          "internalType": "address",
          "name": "",
          "type": "address"
        }
      ],
      "stateMutability": "view",
      "type": "function"
    },
    {
      "inputs": [
        {
          "internalType": "address",
          "name": "",
          "type": "address"
        }
      ],
      "name": "isOwner",
      "outputs": [
        {
          "internalType": "bool",
          "name": "",
          "type": "bool"
        }
      ],
      "stateMutability": "view",
      "type": "function"
    },
    {
      "inputs": [
        {
          "internalType": "uint256",
          "name": "",
          "type": "uint256"
        }
      ],
      "name": "tokenIds",
      "outputs": [
        {
          "internalType": "uint256",
          "name": "",
          "type": "uint256"
        }
      ],
      "stateMutability": "view",
      "type": "function"
    },
    {
      "inputs": [
        {
          "internalType": "contract NFT",
          "name": "_nft",
          "type": "address"
        },
        {
          "internalType": "address",
          "name": "_owner",
          "type": "address"
        },
        {
          "internalType": "uint256",
          "name": "_tokenId",
          "type": "uint256"
        },
        {
          "internalType": "string",
          "name": "_NFTtype",
          "type": "string"
        },
        {
          "internalType": "string",
          "name": "_name",
          "type": "string"
        },
        {
          "internalType": "string",
          "name": "_uri",
          "type": "string"
        },
        {
          "internalType": "string",
          "name": "_description",
          "type": "string"
        },
        {
          "internalType": "uint256",
          "name": "_price",
          "type": "uint256"
        }
      ],
      "name": "Metadata",
      "outputs": [],
      "stateMutability": "nonpayable",
      "type": "function"
    },
    {
      "inputs": [],
      "name": "getAllNFTs",
      "outputs": [
        {
          "components": [
            {
              "internalType": "contract NFT",
              "name": "_NFT",
              "type": "address"
            },
            {
              "internalType": "address",
              "name": "owner",
              "type": "address"
            },
            {
              "internalType": "uint256",
              "name": "tokenId",
              "type": "uint256"
            },
            {
              "internalType": "string",
              "name": "NFTtype",
              "type": "string"
            },
            {
              "internalType": "string",
              "name": "name",
              "type": "string"
            },
            {
              "internalType": "string",
              "name": "uri",
              "type": "string"
            },
            {
              "internalType": "string",
              "name": "description",
              "type": "string"
            },
            {
              "internalType": "uint256",
              "name": "price",
              "type": "uint256"
            },
            {
              "internalType": "uint256",
              "name": "timestamp",
              "type": "uint256"
            },
            {
              "internalType": "string",
              "name": "status",
              "type": "string"
            }
          ],
          "internalType": "struct Data.nft[]",
          "name": "_nfts",
          "type": "tuple[]"
        }
      ],
      "stateMutability": "view",
      "type": "function"
    },
    {
      "inputs": [
        {
          "internalType": "address",
          "name": "_NFTAddress",
          "type": "address"
        }
      ],
      "name": "getNFTbyAddress",
      "outputs": [
        {
          "components": [
            {
              "internalType": "contract NFT",
              "name": "_NFT",
              "type": "address"
            },
            {
              "internalType": "address",
              "name": "owner",
              "type": "address"
            },
            {
              "internalType": "uint256",
              "name": "tokenId",
              "type": "uint256"
            },
            {
              "internalType": "string",
              "name": "NFTtype",
              "type": "string"
            },
            {
              "internalType": "string",
              "name": "name",
              "type": "string"
            },
            {
              "internalType": "string",
              "name": "uri",
              "type": "string"
            },
            {
              "internalType": "string",
              "name": "description",
              "type": "string"
            },
            {
              "internalType": "uint256",
              "name": "price",
              "type": "uint256"
            },
            {
              "internalType": "uint256",
              "name": "timestamp",
              "type": "uint256"
            },
            {
              "internalType": "string",
              "name": "status",
              "type": "string"
            }
          ],
          "internalType": "struct Data.nft",
          "name": "_nft",
          "type": "tuple"
        }
      ],
      "stateMutability": "view",
      "type": "function"
    },
    {
      "inputs": [
        {
          "internalType": "uint256",
          "name": "index",
          "type": "uint256"
        }
      ],
      "name": "getNFtByIndex",
      "outputs": [
        {
          "components": [
            {
              "internalType": "contract NFT",
              "name": "_NFT",
              "type": "address"
            },
            {
              "internalType": "address",
              "name": "owner",
              "type": "address"
            },
            {
              "internalType": "uint256",
              "name": "tokenId",
              "type": "uint256"
            },
            {
              "internalType": "string",
              "name": "NFTtype",
              "type": "string"
            },
            {
              "internalType": "string",
              "name": "name",
              "type": "string"
            },
            {
              "internalType": "string",
              "name": "uri",
              "type": "string"
            },
            {
              "internalType": "string",
              "name": "description",
              "type": "string"
            },
            {
              "internalType": "uint256",
              "name": "price",
              "type": "uint256"
            },
            {
              "internalType": "uint256",
              "name": "timestamp",
              "type": "uint256"
            },
            {
              "internalType": "string",
              "name": "status",
              "type": "string"
            }
          ],
          "internalType": "struct Data.nft",
          "name": "_nft",
          "type": "tuple"
        }
      ],
      "stateMutability": "view",
      "type": "function"
    },
    {
      "inputs": [
        {
          "internalType": "contract NFT",
          "name": "_NFT",
          "type": "address"
        },
        {
          "internalType": "address",
          "name": "_owner",
          "type": "address"
        }
      ],
      "name": "updateOwnership",
      "outputs": [
        {
          "internalType": "bool",
          "name": "",
          "type": "bool"
        }
      ],
      "stateMutability": "nonpayable",
      "type": "function"
    },
    {
      "inputs": [
        {
          "internalType": "address",
          "name": "_NFT",
          "type": "address"
        },
        {
          "internalType": "string",
          "name": "_status",
          "type": "string"
        }
      ],
      "name": "updatestatus",
      "outputs": [
        {
          "internalType": "bool",
          "name": "",
          "type": "bool"
        }
      ],
      "stateMutability": "view",
      "type": "function"
    }
  ],
  "bytecode": "0x608060405234801561001057600080fd5b50611652806100206000396000f3fe608060405234801561001057600080fd5b50600436106100cf5760003560e01c8063d129d4e01161008c578063dfad9f5111610066578063dfad9f51146101be578063e0391b09146101e7578063ebab6cbb146101fc578063fd1e6ffd1461020f576100cf565b8063d129d4e014610183578063d58778d614610196578063d7c181f2146101a9576100cf565b806327e235e3146100d45780632f54bf6e146100fd5780636161a07d1461011d5780638a1ce90814610130578063a60af57514610150578063cd53d08e14610170575b600080fd5b6100e76100e2366004611192565b610222565b6040516100f49190611583565b60405180910390f35b61011061010b366004611192565b610234565b6040516100f491906114c2565b61011061012b3660046111fc565b610249565b61014361013e366004611311565b610313565b6040516100f4919061144e565b61016361015e366004611311565b61033d565b6040516100f49190611570565b61014361017e366004611311565b6106ac565b610163610191366004611192565b6106bc565b6100e76101a4366004611311565b61073f565b6101bc6101b7366004611234565b610760565b005b6101d16101cc366004611311565b610947565b6040516100f49a999897969594939291906114cd565b6101ef610c5f565b6040516100f49190611462565b61014361020a366004611311565b610fdb565b61011061021d3660046111ae565b610feb565b60026020526000908152604090205481565b60056020526000908152604090205460ff1681565b60008281805b600b548110156102b557826001600160a01b0316600b828154811061028457634e487b7160e01b600052603260045260246000fd5b6000918252602090912001546001600160a01b031614156102a3578091505b806102ad816115c7565b91505061024f565b506000600a82815481106102d957634e487b7160e01b600052603260045260246000fd5b600091825260209091206001600a90920201810180546001600160a01b0388166001600160a01b0319909116179055935050505092915050565b6001818154811061032357600080fd5b6000918252602090912001546001600160a01b0316905081565b610345611008565b6000600a838154811061036857634e487b7160e01b600052603260045260246000fd5b60009182526020918290206040805161014081018252600a90930290910180546001600160a01b039081168452600182015416938301939093526002830154908201526003820180549192916060840191906103c39061158c565b80601f01602080910402602001604051908101604052809291908181526020018280546103ef9061158c565b801561043c5780601f106104115761010080835404028352916020019161043c565b820191906000526020600020905b81548152906001019060200180831161041f57829003601f168201915b505050505081526020016004820180546104559061158c565b80601f01602080910402602001604051908101604052809291908181526020018280546104819061158c565b80156104ce5780601f106104a3576101008083540402835291602001916104ce565b820191906000526020600020905b8154815290600101906020018083116104b157829003601f168201915b505050505081526020016005820180546104e79061158c565b80601f01602080910402602001604051908101604052809291908181526020018280546105139061158c565b80156105605780601f1061053557610100808354040283529160200191610560565b820191906000526020600020905b81548152906001019060200180831161054357829003601f168201915b505050505081526020016006820180546105799061158c565b80601f01602080910402602001604051908101604052809291908181526020018280546105a59061158c565b80156105f25780601f106105c7576101008083540402835291602001916105f2565b820191906000526020600020905b8154815290600101906020018083116105d557829003601f168201915b50505050508152602001600782015481526020016008820154815260200160098201805461061f9061158c565b80601f016020809104026020016040519081016040528092919081815260200182805461064b9061158c565b80156106985780601f1061066d57610100808354040283529160200191610698565b820191906000526020600020905b81548152906001019060200180831161067b57829003601f168201915b50505091909252509193505050505b919050565b6004818154811061032357600080fd5b6106c4611008565b6000805b600b5481101561072e57836001600160a01b0316600b82815481106106fd57634e487b7160e01b600052603260045260246000fd5b6000918252602090912001546001600160a01b0316141561071c578091505b80610726816115c7565b9150506106c8565b506107388161033d565b9392505050565b6000818154811061074f57600080fd5b600091825260209091200154905081565b60408051610140810182526001600160a01b03808b16825289811660208084019182528385018b8152606085018b8152608086018b905260a086018a905260c0860189905260e08601889052426101008701528651808801909752600487526337b832b760e11b87840152610120860196909652600a80546001810182556000829052865191027fc65a7bb8d6351c1cf70c95a316cc6a92839c986682d98bc35f958f4883f9d2a8810180549287166001600160a01b031993841617815594517fc65a7bb8d6351c1cf70c95a316cc6a92839c986682d98bc35f958f4883f9d2a98201805491909716921691909117909455517fc65a7bb8d6351c1cf70c95a316cc6a92839c986682d98bc35f958f4883f9d2aa840155935180519394859492936108b3937fc65a7bb8d6351c1cf70c95a316cc6a92839c986682d98bc35f958f4883f9d2ab909101929091019061106d565b50608082015180516108cf91600484019160209091019061106d565b5060a082015180516108eb91600584019160209091019061106d565b5060c0820151805161090791600684019160209091019061106d565b5060e082015160078201556101008201516008820155610120820151805161093991600984019160209091019061106d565b505050505050505050505050565b600a818154811061095757600080fd5b60009182526020909120600a909102018054600182015460028301546003840180546001600160a01b0394851696509290931693909290916109989061158c565b80601f01602080910402602001604051908101604052809291908181526020018280546109c49061158c565b8015610a115780601f106109e657610100808354040283529160200191610a11565b820191906000526020600020905b8154815290600101906020018083116109f457829003601f168201915b505050505090806004018054610a269061158c565b80601f0160208091040260200160405190810160405280929190818152602001828054610a529061158c565b8015610a9f5780601f10610a7457610100808354040283529160200191610a9f565b820191906000526020600020905b815481529060010190602001808311610a8257829003601f168201915b505050505090806005018054610ab49061158c565b80601f0160208091040260200160405190810160405280929190818152602001828054610ae09061158c565b8015610b2d5780601f10610b0257610100808354040283529160200191610b2d565b820191906000526020600020905b815481529060010190602001808311610b1057829003601f168201915b505050505090806006018054610b429061158c565b80601f0160208091040260200160405190810160405280929190818152602001828054610b6e9061158c565b8015610bbb5780601f10610b9057610100808354040283529160200191610bbb565b820191906000526020600020905b815481529060010190602001808311610b9e57829003601f168201915b505050505090806007015490806008015490806009018054610bdc9061158c565b80601f0160208091040260200160405190810160405280929190818152602001828054610c089061158c565b8015610c555780601f10610c2a57610100808354040283529160200191610c55565b820191906000526020600020905b815481529060010190602001808311610c3857829003601f168201915b505050505090508a565b6060600a805480602002602001604051908101604052809291908181526020016000905b82821015610fd25760008481526020908190206040805161014081018252600a860290920180546001600160a01b03908116845260018201541693830193909352600283015490820152600382018054919291606084019190610ce59061158c565b80601f0160208091040260200160405190810160405280929190818152602001828054610d119061158c565b8015610d5e5780601f10610d3357610100808354040283529160200191610d5e565b820191906000526020600020905b815481529060010190602001808311610d4157829003601f168201915b50505050508152602001600482018054610d779061158c565b80601f0160208091040260200160405190810160405280929190818152602001828054610da39061158c565b8015610df05780601f10610dc557610100808354040283529160200191610df0565b820191906000526020600020905b815481529060010190602001808311610dd357829003601f168201915b50505050508152602001600582018054610e099061158c565b80601f0160208091040260200160405190810160405280929190818152602001828054610e359061158c565b8015610e825780601f10610e5757610100808354040283529160200191610e82565b820191906000526020600020905b815481529060010190602001808311610e6557829003601f168201915b50505050508152602001600682018054610e9b9061158c565b80601f0160208091040260200160405190810160405280929190818152602001828054610ec79061158c565b8015610f145780601f10610ee957610100808354040283529160200191610f14565b820191906000526020600020905b815481529060010190602001808311610ef757829003601f168201915b505050505081526020016007820154815260200160088201548152602001600982018054610f419061158c565b80601f0160208091040260200160405190810160405280929190818152602001828054610f6d9061158c565b8015610fba5780601f10610f8f57610100808354040283529160200191610fba565b820191906000526020600020905b815481529060010190602001808311610f9d57829003601f168201915b50505050508152505081526020019060010190610c83565b50505050905090565b600b818154811061032357600080fd5b600080610ff7846106bc565b610120019290925250600192915050565b60405180610140016040528060006001600160a01b0316815260200160006001600160a01b0316815260200160008152602001606081526020016060815260200160608152602001606081526020016000815260200160008152602001606081525090565b8280546110799061158c565b90600052602060002090601f01602090048101928261109b57600085556110e1565b82601f106110b457805160ff19168380011785556110e1565b828001600101855582156110e1579182015b828111156110e15782518255916020019190600101906110c6565b506110ed9291506110f1565b5090565b5b808211156110ed57600081556001016110f2565b80356106a781611604565b600082601f830112611121578081fd5b813567ffffffffffffffff8082111561113c5761113c6115ee565b604051601f8301601f191681016020018281118282101715611160576111606115ee565b604052828152848301602001861015611177578384fd5b82602086016020830137918201602001929092529392505050565b6000602082840312156111a3578081fd5b813561073881611604565b600080604083850312156111c0578081fd5b82356111cb81611604565b9150602083013567ffffffffffffffff8111156111e6578182fd5b6111f285828601611111565b9150509250929050565b6000806040838503121561120e578182fd5b823561121981611604565b9150602083013561122981611604565b809150509250929050565b600080600080600080600080610100898b031215611250578384fd5b61125989611106565b975061126760208a01611106565b965060408901359550606089013567ffffffffffffffff8082111561128a578586fd5b6112968c838d01611111565b965060808b01359150808211156112ab578586fd5b6112b78c838d01611111565b955060a08b01359150808211156112cc578485fd5b6112d88c838d01611111565b945060c08b01359150808211156112ed578384fd5b506112fa8b828c01611111565b92505060e089013590509295985092959890939650565b600060208284031215611322578081fd5b5035919050565b6001600160a01b03169052565b60008151808452815b8181101561135b5760208185018101518683018201520161133f565b8181111561136c5782602083870101525b50601f01601f19169290920160200192915050565b6000610140611391848451611329565b60208301516113a36020860182611329565b506040830151604085015260608301518160608601526113c582860182611336565b915050608083015184820360808601526113df8282611336565b91505060a083015184820360a08601526113f98282611336565b91505060c083015184820360c08601526114138282611336565b91505060e083015160e085015261010080840151818601525061012080840151858303828701526114448382611336565b9695505050505050565b6001600160a01b0391909116815260200190565b6000602080830181845280855180835260408601915060408482028701019250838701855b828110156114b557603f198886030184526114a3858351611381565b94509285019290850190600101611487565b5092979650505050505050565b901515815260200190565b6001600160a01b038b811682528a16602082015260408101899052610140606082018190526000906115018382018b611336565b90508281036080840152611515818a611336565b905082810360a08401526115298189611336565b905082810360c084015261153d8188611336565b90508560e08401528461010084015282810361012084015261155f8185611336565b9d9c50505050505050505050505050565b6000602082526107386020830184611381565b90815260200190565b6002810460018216806115a057607f821691505b602082108114156115c157634e487b7160e01b600052602260045260246000fd5b50919050565b60006000198214156115e757634e487b7160e01b81526011600452602481fd5b5060010190565b634e487b7160e01b600052604160045260246000fd5b6001600160a01b038116811461161957600080fd5b5056fea26469706673582212202c3da8455a6da1979ada636191e810c4ee0b556dffe274e628cf06644b4ee74564736f6c63430008000033",
  "immutableReferences": {},
  "source": "// SPDX-License-Identifier: MIT\n\npragma solidity ^0.8.0;\n\n\nimport \"./NFT.sol\";\nimport \"./Events/Events.sol\";\nimport \"./Storage.sol\";\nimport \"./Modifiers/Modifiers.sol\";\n\n\ncontract NFTData is Storage,NFT_Events,NFT_modifiers {\n    \n    \n    constructor () {}\n    \n    // Metadata\n        \n    function Metadata(\n        \n        NFT _nft,\n        address _owner,\n        uint256 _tokenId,\n        string memory _NFTtype,\n        string memory _name,\n        string memory _uri,\n        string memory _description,\n        uint256 _price\n        \n            \n        ) public {\n            \n            \n            nft memory newnft = nft ({\n                \n                _NFT:_nft,\n                owner: _owner,\n                tokenId:_tokenId,\n                NFTtype:_NFTtype,\n                name:_name,\n                uri:_uri,\n                description:_description,\n                price : _price,\n                timestamp: block.timestamp,\n                status:\"open\"\n                \n                \n            });\n            \n            \n           Allnfts.push(newnft);\n           \n           \n        }\n        \n        \n    //  get all NFTs   \n    \n    \n    \n    function getAllNFTs() public view returns (nft[] memory _nfts) {\n        \n        return Allnfts;\n    }\n    \n    \n    //  getNFTby contract Address\n    \n    \n    function getNFTbyAddress (address _NFTAddress) public view returns(nft memory _nft)  {\n        \n        uint index;\n        \n        for (uint i=0; i< NFT_addresses.length; i++) {\n            \n            if (NFT_addresses[i] == _NFTAddress) {\n                \n                index = i ;\n            }\n            \n        }    \n            \n             return getNFtByIndex(index);\n        }\n    \n    \n    //  get Nft by Index  \n   \n    function getNFtByIndex(uint index) public view returns (nft memory _nft) {\n        \n        nft memory newnft = Allnfts[index];\n        \n        return newnft;\n    }\n    \n    \n    // update ownership\n    \n    \n    function updateOwnership(NFT _NFT,address _owner) public returns (bool) {\n        \n        address New_NfT = address(_NFT);\n        \n        uint index;\n        \n        for (uint i=0; i< NFT_addresses.length; i++) {\n            \n            if (NFT_addresses[i] == New_NfT) {\n                \n                index = i ;\n            }\n            \n        }    \n            \n        \n      nft storage newnft = Allnfts[index];\n      \n      newnft.owner = _owner;\n      \n      return true;\n        \n        \n    }\n    \n    // update status\n    \n    \n    function updatestatus(address _NFT,string memory _status) public view returns (bool) {\n        \n         \n      nft memory N = getNFTbyAddress(_NFT);\n      \n      N.status = _status;\n      \n      return true;\n        \n        \n    }\n    \n    \n    \n    \n    \n    \n    \n    \n    \n}",
  "sourcePath": "/home/gokulalex/NFT_MARKETPLACE/contracts/NFT_Data.sol",
  "compiler": {
    "name": "solc",
    "version": "0.8.0+commit.c7dfd78e.Emscripten.clang"
  },
  "schemaVersion": "3.3.1",
  "updatedAt": "2021-09-23T13:34:39.593Z",
  "devdoc": {
    "kind": "dev",
    "methods": {},
    "version": 1
  },
  "userdoc": {
    "kind": "user",
    "methods": {},
    "version": 1
  }
}