{
  "contractName": "Storage",
  "abi": [
    {
      "inputs": [
        {
          "internalType": "uint256",
          "name": "",
          "type": "uint256"
        }
      ],
      "name": "Allnfts",
      "outputs": [
        {
          "internalType": "contract NFT",
          "name": "_NFT",
          "type": "address"
        },
        {
          "internalType": "address",
          "name": "owner",
          "type": "address"
        },
        {
          "internalType": "uint256",
          "name": "tokenId",
          "type": "uint256"
        },
        {
          "internalType": "string",
          "name": "NFTtype",
          "type": "string"
        },
        {
          "internalType": "string",
          "name": "name",
          "type": "string"
        },
        {
          "internalType": "string",
          "name": "uri",
          "type": "string"
        },
        {
          "internalType": "string",
          "name": "description",
          "type": "string"
        },
        {
          "internalType": "uint256",
          "name": "price",
          "type": "uint256"
        },
        {
          "internalType": "uint256",
          "name": "timestamp",
          "type": "uint256"
        },
        {
          "internalType": "string",
          "name": "status",
          "type": "string"
        }
      ],
      "stateMutability": "view",
      "type": "function"
    },
    {
      "inputs": [
        {
          "internalType": "uint256",
          "name": "",
          "type": "uint256"
        }
      ],
      "name": "NFT_addresses",
      "outputs": [
        {
          "internalType": "address",
          "name": "",
          "type": "address"
        }
      ],
      "stateMutability": "view",
      "type": "function"
    },
    {
      "inputs": [
        {
          "internalType": "uint256",
          "name": "",
          "type": "uint256"
        }
      ],
      "name": "Owners",
      "outputs": [
        {
          "internalType": "address",
          "name": "",
          "type": "address"
        }
      ],
      "stateMutability": "view",
      "type": "function"
    },
    {
      "inputs": [
        {
          "internalType": "address",
          "name": "",
          "type": "address"
        }
      ],
      "name": "balances",
      "outputs": [
        {
          "internalType": "uint256",
          "name": "",
          "type": "uint256"
        }
      ],
      "stateMutability": "view",
      "type": "function"
    },
    {
      "inputs": [
        {
          "internalType": "uint256",
          "name": "",
          "type": "uint256"
        }
      ],
      "name": "creators",
      "outputs": [
        {
          "internalType": "address",
          "name": "",
          "type": "address"
        }
      ],
      "stateMutability": "view",
      "type": "function"
    },
    {
      "inputs": [
        {
          "internalType": "address",
          "name": "",
          "type": "address"
        }
      ],
      "name": "isOwner",
      "outputs": [
        {
          "internalType": "bool",
          "name": "",
          "type": "bool"
        }
      ],
      "stateMutability": "view",
      "type": "function"
    },
    {
      "inputs": [
        {
          "internalType": "uint256",
          "name": "",
          "type": "uint256"
        }
      ],
      "name": "tokenIds",
      "outputs": [
        {
          "internalType": "uint256",
          "name": "",
          "type": "uint256"
        }
      ],
      "stateMutability": "view",
      "type": "function"
    }
  ],
  "bytecode": "0x608060405234801561001057600080fd5b506106c4806100206000396000f3fe608060405234801561001057600080fd5b506004361061007d5760003560e01c8063cd53d08e1161005b578063cd53d08e146100eb578063d58778d6146100fe578063dfad9f5114610111578063ebab6cbb1461013a5761007d565b806327e235e3146100825780632f54bf6e146100ab5780638a1ce908146100cb575b600080fd5b6100956100903660046104f7565b61014d565b6040516100a2919061064a565b60405180910390f35b6100be6100b93660046104f7565b61015f565b6040516100a2919061059c565b6100de6100d9366004610525565b610174565b6040516100a29190610588565b6100de6100f9366004610525565b61019e565b61009561010c366004610525565b6101ae565b61012461011f366004610525565b6101cf565b6040516100a29a999897969594939291906105a7565b6100de610148366004610525565b6104e7565b60026020526000908152604090205481565b60056020526000908152604090205460ff1681565b6001818154811061018457600080fd5b6000918252602090912001546001600160a01b0316905081565b6004818154811061018457600080fd5b600081815481106101be57600080fd5b600091825260209091200154905081565b600a81815481106101df57600080fd5b60009182526020909120600a909102018054600182015460028301546003840180546001600160a01b03948516965092909316939092909161022090610653565b80601f016020809104026020016040519081016040528092919081815260200182805461024c90610653565b80156102995780601f1061026e57610100808354040283529160200191610299565b820191906000526020600020905b81548152906001019060200180831161027c57829003601f168201915b5050505050908060040180546102ae90610653565b80601f01602080910402602001604051908101604052809291908181526020018280546102da90610653565b80156103275780601f106102fc57610100808354040283529160200191610327565b820191906000526020600020905b81548152906001019060200180831161030a57829003601f168201915b50505050509080600501805461033c90610653565b80601f016020809104026020016040519081016040528092919081815260200182805461036890610653565b80156103b55780601f1061038a576101008083540402835291602001916103b5565b820191906000526020600020905b81548152906001019060200180831161039857829003601f168201915b5050505050908060060180546103ca90610653565b80601f01602080910402602001604051908101604052809291908181526020018280546103f690610653565b80156104435780601f1061041857610100808354040283529160200191610443565b820191906000526020600020905b81548152906001019060200180831161042657829003601f168201915b50505050509080600701549080600801549080600901805461046490610653565b80601f016020809104026020016040519081016040528092919081815260200182805461049090610653565b80156104dd5780601f106104b2576101008083540402835291602001916104dd565b820191906000526020600020905b8154815290600101906020018083116104c057829003601f168201915b505050505090508a565b600b818154811061018457600080fd5b600060208284031215610508578081fd5b81356001600160a01b038116811461051e578182fd5b9392505050565b600060208284031215610536578081fd5b5035919050565b60008151808452815b8181101561056257602081850181015186830182015201610546565b818111156105735782602083870101525b50601f01601f19169290920160200192915050565b6001600160a01b0391909116815260200190565b901515815260200190565b6001600160a01b038b811682528a16602082015260408101899052610140606082018190526000906105db8382018b61053d565b905082810360808401526105ef818a61053d565b905082810360a0840152610603818961053d565b905082810360c0840152610617818861053d565b90508560e084015284610100840152828103610120840152610639818561053d565b9d9c50505050505050505050505050565b90815260200190565b60028104600182168061066757607f821691505b6020821081141561068857634e487b7160e01b600052602260045260246000fd5b5091905056fea26469706673582212203a403f68495ff93adc26548dc39657dd5a50711bc3ea3a1c8a9386ebca2ae7c264736f6c63430008000033",
  "immutableReferences": {},
  "source": "// SPDX-License-Identifier: MIT\n\npragma solidity ^0.8.0;\n\n\nimport  \"./Data.sol\" ;\n\n\ncontract Storage is Data {\n    \n    // tokenIds\n    \n    uint256[] public tokenIds;\n    \n    // owners\n    \n    address[] public Owners;\n    \n    mapping(address => uint256) public balances;\n    \n    // creators\n    \n    mapping(uint256 => address) internal creator;\n    \n    address[] public creators;\n    \n    mapping(address => bool) public isOwner;\n    \n    // Mapping from token ID to owner address\n    \n    mapping(uint256 => address) internal owner;\n    \n    // Mapping from token ID to approved address\n    \n    mapping(uint256 => address) internal tokenApprovals;\n    \n    // Mapping from owner to operator approvals\n    \n    mapping(address => mapping(address => bool)) internal operatorApprovals;\n    \n    mapping(uint256 => address) internal contractAddress;\n    \n    // Array of Allnfts\n\n    nft[] public Allnfts;\n    \n    // num of NFTs\n    \n    // uint256 public numnfts;\n    \n    // array of NFT Addresses\n    \n    address[] public NFT_addresses;\n    \n    mapping(address => nft) nftAddresses;\n    \n    \n    \n    \n    \n    \n}   ",
  "sourcePath": "/home/gokulalex/NFT_MARKETPLACE/contracts/Storage.sol",
  "compiler": {
    "name": "solc",
    "version": "0.8.0+commit.c7dfd78e.Emscripten.clang"
  },
  "schemaVersion": "3.3.1",
  "updatedAt": "2021-10-01T13:02:12.030Z",
  "devdoc": {
    "kind": "dev",
    "methods": {},
    "version": 1
  },
  "userdoc": {
    "kind": "user",
    "methods": {},
    "version": 1
  }
}