{
  "contractName": "Token",
  "abi": [
    {
      "inputs": [
        {
          "internalType": "string",
          "name": "uri_",
          "type": "string"
        }
      ],
      "stateMutability": "nonpayable",
      "type": "constructor"
    },
    {
      "anonymous": false,
      "inputs": [
        {
          "indexed": true,
          "internalType": "address",
          "name": "account",
          "type": "address"
        },
        {
          "indexed": true,
          "internalType": "address",
          "name": "operator",
          "type": "address"
        },
        {
          "indexed": false,
          "internalType": "bool",
          "name": "approved",
          "type": "bool"
        }
      ],
      "name": "ApprovalForAll",
      "type": "event"
    },
    {
      "anonymous": false,
      "inputs": [
        {
          "indexed": true,
          "internalType": "address",
          "name": "previousOwner",
          "type": "address"
        },
        {
          "indexed": true,
          "internalType": "address",
          "name": "newOwner",
          "type": "address"
        }
      ],
      "name": "OwnershipTransferred",
      "type": "event"
    },
    {
      "anonymous": false,
      "inputs": [
        {
          "indexed": true,
          "internalType": "address",
          "name": "operator",
          "type": "address"
        },
        {
          "indexed": true,
          "internalType": "address",
          "name": "from",
          "type": "address"
        },
        {
          "indexed": true,
          "internalType": "address",
          "name": "to",
          "type": "address"
        },
        {
          "indexed": false,
          "internalType": "uint256[]",
          "name": "ids",
          "type": "uint256[]"
        },
        {
          "indexed": false,
          "internalType": "uint256[]",
          "name": "values",
          "type": "uint256[]"
        }
      ],
      "name": "TransferBatch",
      "type": "event"
    },
    {
      "anonymous": false,
      "inputs": [
        {
          "indexed": true,
          "internalType": "address",
          "name": "operator",
          "type": "address"
        },
        {
          "indexed": true,
          "internalType": "address",
          "name": "from",
          "type": "address"
        },
        {
          "indexed": true,
          "internalType": "address",
          "name": "to",
          "type": "address"
        },
        {
          "indexed": false,
          "internalType": "uint256",
          "name": "id",
          "type": "uint256"
        },
        {
          "indexed": false,
          "internalType": "uint256",
          "name": "value",
          "type": "uint256"
        }
      ],
      "name": "TransferSingle",
      "type": "event"
    },
    {
      "anonymous": false,
      "inputs": [
        {
          "indexed": false,
          "internalType": "string",
          "name": "value",
          "type": "string"
        },
        {
          "indexed": true,
          "internalType": "uint256",
          "name": "id",
          "type": "uint256"
        }
      ],
      "name": "URI",
      "type": "event"
    },
    {
      "inputs": [
        {
          "internalType": "address",
          "name": "account",
          "type": "address"
        },
        {
          "internalType": "uint256",
          "name": "id",
          "type": "uint256"
        }
      ],
      "name": "balanceOf",
      "outputs": [
        {
          "internalType": "uint256",
          "name": "",
          "type": "uint256"
        }
      ],
      "stateMutability": "view",
      "type": "function"
    },
    {
      "inputs": [
        {
          "internalType": "address[]",
          "name": "accounts",
          "type": "address[]"
        },
        {
          "internalType": "uint256[]",
          "name": "ids",
          "type": "uint256[]"
        }
      ],
      "name": "balanceOfBatch",
      "outputs": [
        {
          "internalType": "uint256[]",
          "name": "",
          "type": "uint256[]"
        }
      ],
      "stateMutability": "view",
      "type": "function"
    },
    {
      "inputs": [
        {
          "internalType": "address",
          "name": "account",
          "type": "address"
        },
        {
          "internalType": "address",
          "name": "operator",
          "type": "address"
        }
      ],
      "name": "isApprovedForAll",
      "outputs": [
        {
          "internalType": "bool",
          "name": "",
          "type": "bool"
        }
      ],
      "stateMutability": "view",
      "type": "function"
    },
    {
      "inputs": [],
      "name": "owner",
      "outputs": [
        {
          "internalType": "address",
          "name": "",
          "type": "address"
        }
      ],
      "stateMutability": "view",
      "type": "function"
    },
    {
      "inputs": [],
      "name": "renounceOwnership",
      "outputs": [],
      "stateMutability": "nonpayable",
      "type": "function"
    },
    {
      "inputs": [
        {
          "internalType": "address",
          "name": "from",
          "type": "address"
        },
        {
          "internalType": "address",
          "name": "to",
          "type": "address"
        },
        {
          "internalType": "uint256[]",
          "name": "ids",
          "type": "uint256[]"
        },
        {
          "internalType": "uint256[]",
          "name": "amounts",
          "type": "uint256[]"
        },
        {
          "internalType": "bytes",
          "name": "data",
          "type": "bytes"
        }
      ],
      "name": "safeBatchTransferFrom",
      "outputs": [],
      "stateMutability": "nonpayable",
      "type": "function"
    },
    {
      "inputs": [
        {
          "internalType": "address",
          "name": "from",
          "type": "address"
        },
        {
          "internalType": "address",
          "name": "to",
          "type": "address"
        },
        {
          "internalType": "uint256",
          "name": "id",
          "type": "uint256"
        },
        {
          "internalType": "uint256",
          "name": "amount",
          "type": "uint256"
        },
        {
          "internalType": "bytes",
          "name": "data",
          "type": "bytes"
        }
      ],
      "name": "safeTransferFrom",
      "outputs": [],
      "stateMutability": "nonpayable",
      "type": "function"
    },
    {
      "inputs": [
        {
          "internalType": "address",
          "name": "operator",
          "type": "address"
        },
        {
          "internalType": "bool",
          "name": "approved",
          "type": "bool"
        }
      ],
      "name": "setApprovalForAll",
      "outputs": [],
      "stateMutability": "nonpayable",
      "type": "function"
    },
    {
      "inputs": [
        {
          "internalType": "bytes4",
          "name": "interfaceId",
          "type": "bytes4"
        }
      ],
      "name": "supportsInterface",
      "outputs": [
        {
          "internalType": "bool",
          "name": "",
          "type": "bool"
        }
      ],
      "stateMutability": "view",
      "type": "function"
    },
    {
      "inputs": [
        {
          "internalType": "address",
          "name": "newOwner",
          "type": "address"
        }
      ],
      "name": "transferOwnership",
      "outputs": [],
      "stateMutability": "nonpayable",
      "type": "function"
    },
    {
      "inputs": [
        {
          "internalType": "uint256",
          "name": "",
          "type": "uint256"
        }
      ],
      "name": "uri",
      "outputs": [
        {
          "internalType": "string",
          "name": "",
          "type": "string"
        }
      ],
      "stateMutability": "view",
      "type": "function"
    },
    {
      "inputs": [
        {
          "internalType": "uint256",
          "name": "amount",
          "type": "uint256"
        }
      ],
      "name": "_mintItem",
      "outputs": [
        {
          "internalType": "uint256",
          "name": "",
          "type": "uint256"
        }
      ],
      "stateMutability": "nonpayable",
      "type": "function"
    }
  ],
  "bytecode": "0x60806040523480156200001157600080fd5b5060405162001baa38038062001baa833981016040819052620000349162000170565b806200004081620000ad565b5060006200004d620000c6565b600380546001600160a01b0319166001600160a01b038316908117909155604051919250906000907f8be0079c531659141344cd1fd0a4f28419497f9722a3daafe3b4186f6b6457e0908290a350620000a681620000ad565b5062000292565b8051620000c2906002906020840190620000ca565b5050565b3390565b828054620000d8906200023f565b90600052602060002090601f016020900481019282620000fc576000855562000147565b82601f106200011757805160ff191683800117855562000147565b8280016001018555821562000147579182015b82811115620001475782518255916020019190600101906200012a565b506200015592915062000159565b5090565b5b808211156200015557600081556001016200015a565b6000602080838503121562000183578182fd5b82516001600160401b03808211156200019a578384fd5b818501915085601f830112620001ae578384fd5b815181811115620001c357620001c36200027c565b604051601f8201601f1916810185018381118282101715620001e957620001e96200027c565b604052818152838201850188101562000200578586fd5b8592505b8183101562000223578383018501518184018601529184019162000204565b818311156200023457858583830101525b979650505050505050565b6002810460018216806200025457607f821691505b602082108114156200027657634e487b7160e01b600052602260045260246000fd5b50919050565b634e487b7160e01b600052604160045260246000fd5b61190880620002a26000396000f3fe608060405234801561001057600080fd5b50600436106100b35760003560e01c80638da5cb5b116100715780638da5cb5b1461015e578063a22cb46514610173578063dcd62b7d14610186578063e985e9c514610199578063f242432a146101ac578063f2fde38b146101bf576100b3565b8062fdd58e146100b857806301ffc9a7146100e15780630e89341c146101015780632eb2c2d6146101215780634e1273f414610136578063715018a614610156575b600080fd5b6100cb6100c636600461107f565b6101d2565b6040516100d891906116f8565b60405180910390f35b6100f46100ef366004611166565b610229565b6040516100d89190611333565b61011461010f36600461119e565b610271565b6040516100d8919061133e565b61013461012f366004610f3c565b610305565b005b6101496101443660046110a8565b61056b565b6040516100d891906112f2565b61013461068b565b610166610714565b6040516100d8919061123b565b610134610181366004611045565b610724565b6100cb61019436600461119e565b6107f2565b6100f46101a7366004610f0a565b610827565b6101346101ba366004610fe2565b610855565b6101346101cd366004610ee9565b6109eb565b60006001600160a01b0383166102035760405162461bcd60e51b81526004016101fa906113ed565b60405180910390fd5b506000908152602081815260408083206001600160a01b03949094168352929052205490565b60006001600160e01b03198216636cdb3d1360e11b148061025a57506001600160e01b031982166303a24d0760e21b145b80610269575061026982610aac565b90505b919050565b6060600280546102809061178c565b80601f01602080910402602001604051908101604052809291908181526020018280546102ac9061178c565b80156102f95780601f106102ce576101008083540402835291602001916102f9565b820191906000526020600020905b8154815290600101906020018083116102dc57829003601f168201915b50505050509050919050565b81518351146103265760405162461bcd60e51b81526004016101fa9061166f565b6001600160a01b03841661034c5760405162461bcd60e51b81526004016101fa906114c7565b610354610ac5565b6001600160a01b0316856001600160a01b0316148061037a575061037a856101a7610ac5565b6103965760405162461bcd60e51b81526004016101fa9061150c565b60006103a0610ac5565b90506103b0818787878787610563565b60005b84518110156104fd5760008582815181106103de57634e487b7160e01b600052603260045260246000fd5b60200260200101519050600085838151811061040a57634e487b7160e01b600052603260045260246000fd5b602090810291909101810151600084815280835260408082206001600160a01b038e16835290935291909120549091508181101561045a5760405162461bcd60e51b81526004016101fa9061155e565b6104648282611775565b60008085815260200190815260200160002060008c6001600160a01b03166001600160a01b03168152602001908152602001600020819055508160008085815260200190815260200160002060008b6001600160a01b03166001600160a01b0316815260200190815260200160002060008282546104e2919061175d565b92505081905550505050806104f6906117c7565b90506103b3565b50846001600160a01b0316866001600160a01b0316826001600160a01b03167f4a39dc06d4c0dbc64b70af90fd698a233a518aa5d07e595d983b8c0526c8f7fb878760405161054d929190611305565b60405180910390a4610563818787878787610ac9565b505050505050565b6060815183511461058e5760405162461bcd60e51b81526004016101fa90611626565b6000835167ffffffffffffffff8111156105b857634e487b7160e01b600052604160045260246000fd5b6040519080825280602002602001820160405280156105e1578160200160208202803683370190505b50905060005b84518110156106835761064885828151811061061357634e487b7160e01b600052603260045260246000fd5b602002602001015185838151811061063b57634e487b7160e01b600052603260045260246000fd5b60200260200101516101d2565b82828151811061066857634e487b7160e01b600052603260045260246000fd5b602090810291909101015261067c816117c7565b90506105e7565b509392505050565b610693610ac5565b6001600160a01b03166106a4610714565b6001600160a01b0316146106ca5760405162461bcd60e51b81526004016101fa906115a8565b6003546040516000916001600160a01b0316907f8be0079c531659141344cd1fd0a4f28419497f9722a3daafe3b4186f6b6457e0908390a3600380546001600160a01b0319169055565b6003546001600160a01b03165b90565b816001600160a01b0316610736610ac5565b6001600160a01b0316141561075d5760405162461bcd60e51b81526004016101fa906115dd565b806001600061076a610ac5565b6001600160a01b03908116825260208083019390935260409182016000908120918716808252919093529120805460ff1916921515929092179091556107ae610ac5565b6001600160a01b03167f17307eab39ab6107e8899845ad3d59bd9653f200f220920489ca2b5937696c31836040516107e69190611333565b60405180910390a35050565b60006107fe6004610bd7565b600061080a6004610be0565b905061026933828560405180602001604052806000815250610be4565b6001600160a01b03918216600090815260016020908152604080832093909416825291909152205460ff1690565b6001600160a01b03841661087b5760405162461bcd60e51b81526004016101fa906114c7565b610883610ac5565b6001600160a01b0316856001600160a01b031614806108a957506108a9856101a7610ac5565b6108c55760405162461bcd60e51b81526004016101fa9061147e565b60006108cf610ac5565b90506108ef8187876108e088610ccb565b6108e988610ccb565b87610563565b6000848152602081815260408083206001600160a01b038a168452909152902054838110156109305760405162461bcd60e51b81526004016101fa9061155e565b61093a8482611775565b6000868152602081815260408083206001600160a01b038c8116855292528083209390935588168152908120805486929061097690849061175d565b92505081905550856001600160a01b0316876001600160a01b0316836001600160a01b03167fc3d58168c5ae7397731d063d5bbf3d657854427343f4c083240f7aacaa2d0f6288886040516109cc929190611701565b60405180910390a46109e2828888888888610d24565b50505050505050565b6109f3610ac5565b6001600160a01b0316610a04610714565b6001600160a01b031614610a2a5760405162461bcd60e51b81526004016101fa906115a8565b6001600160a01b038116610a505760405162461bcd60e51b81526004016101fa90611438565b6003546040516001600160a01b038084169216907f8be0079c531659141344cd1fd0a4f28419497f9722a3daafe3b4186f6b6457e090600090a3600380546001600160a01b0319166001600160a01b0392909216919091179055565b6001600160e01b031981166301ffc9a760e01b14919050565b3390565b610adb846001600160a01b0316610df5565b156105635760405163bc197c8160e01b81526001600160a01b0385169063bc197c8190610b14908990899088908890889060040161124f565b602060405180830381600087803b158015610b2e57600080fd5b505af1925050508015610b5e575060408051601f3d908101601f19168201909252610b5b91810190611182565b60015b610ba757610b6a611814565b80610b755750610b8f565b8060405162461bcd60e51b81526004016101fa919061133e565b60405162461bcd60e51b81526004016101fa90611351565b6001600160e01b0319811663bc197c8160e01b146109e25760405162461bcd60e51b81526004016101fa906113a5565b80546001019055565b5490565b6001600160a01b038416610c0a5760405162461bcd60e51b81526004016101fa906116b7565b6000610c14610ac5565b9050610c26816000876108e088610ccb565b6000848152602081815260408083206001600160a01b038916845290915281208054859290610c5690849061175d565b92505081905550846001600160a01b031660006001600160a01b0316826001600160a01b03167fc3d58168c5ae7397731d063d5bbf3d657854427343f4c083240f7aacaa2d0f628787604051610cad929190611701565b60405180910390a4610cc481600087878787610d24565b5050505050565b60408051600180825281830190925260609160009190602080830190803683370190505090508281600081518110610d1357634e487b7160e01b600052603260045260246000fd5b602090810291909101015292915050565b610d36846001600160a01b0316610df5565b156105635760405163f23a6e6160e01b81526001600160a01b0385169063f23a6e6190610d6f90899089908890889088906004016112ad565b602060405180830381600087803b158015610d8957600080fd5b505af1925050508015610db9575060408051601f3d908101601f19168201909252610db691810190611182565b60015b610dc557610b6a611814565b6001600160e01b0319811663f23a6e6160e01b146109e25760405162461bcd60e51b81526004016101fa906113a5565b3b151590565b80356001600160a01b038116811461026c57600080fd5b600082601f830112610e22578081fd5b81356020610e37610e3283611739565b61170f565b8281528181019085830183850287018401881015610e53578586fd5b855b85811015610e7157813584529284019290840190600101610e55565b5090979650505050505050565b600082601f830112610e8e578081fd5b813567ffffffffffffffff811115610ea857610ea86117f8565b610ebb601f8201601f191660200161170f565b818152846020838601011115610ecf578283fd5b816020850160208301379081016020019190915292915050565b600060208284031215610efa578081fd5b610f0382610dfb565b9392505050565b60008060408385031215610f1c578081fd5b610f2583610dfb565b9150610f3360208401610dfb565b90509250929050565b600080600080600060a08688031215610f53578081fd5b610f5c86610dfb565b9450610f6a60208701610dfb565b9350604086013567ffffffffffffffff80821115610f86578283fd5b610f9289838a01610e12565b94506060880135915080821115610fa7578283fd5b610fb389838a01610e12565b93506080880135915080821115610fc8578283fd5b50610fd588828901610e7e565b9150509295509295909350565b600080600080600060a08688031215610ff9578081fd5b61100286610dfb565b945061101060208701610dfb565b93506040860135925060608601359150608086013567ffffffffffffffff811115611039578182fd5b610fd588828901610e7e565b60008060408385031215611057578182fd5b61106083610dfb565b915060208301358015158114611074578182fd5b809150509250929050565b60008060408385031215611091578182fd5b61109a83610dfb565b946020939093013593505050565b600080604083850312156110ba578182fd5b823567ffffffffffffffff808211156110d1578384fd5b818501915085601f8301126110e4578384fd5b813560206110f4610e3283611739565b82815281810190858301838502870184018b1015611110578889fd5b8896505b848710156111395761112581610dfb565b835260019690960195918301918301611114565b509650508601359250508082111561114f578283fd5b5061115c85828601610e12565b9150509250929050565b600060208284031215611177578081fd5b8135610f03816118b9565b600060208284031215611193578081fd5b8151610f03816118b9565b6000602082840312156111af578081fd5b5035919050565b6000815180845260208085019450808401835b838110156111e5578151875295820195908201906001016111c9565b509495945050505050565b60008151808452815b81811015611215576020818501810151868301820152016111f9565b818111156112265782602083870101525b50601f01601f19169290920160200192915050565b6001600160a01b0391909116815260200190565b6001600160a01b0386811682528516602082015260a06040820181905260009061127b908301866111b6565b828103606084015261128d81866111b6565b905082810360808401526112a181856111f0565b98975050505050505050565b6001600160a01b03868116825285166020820152604081018490526060810183905260a0608082018190526000906112e7908301846111f0565b979650505050505050565b600060208252610f0360208301846111b6565b60006040825261131860408301856111b6565b828103602084015261132a81856111b6565b95945050505050565b901515815260200190565b600060208252610f0360208301846111f0565b60208082526034908201527f455243313135353a207472616e7366657220746f206e6f6e20455243313135356040820152732932b1b2b4bb32b91034b6b83632b6b2b73a32b960611b606082015260800190565b60208082526028908201527f455243313135353a204552433131353552656365697665722072656a656374656040820152676420746f6b656e7360c01b606082015260800190565b6020808252602b908201527f455243313135353a2062616c616e636520717565727920666f7220746865207a60408201526a65726f206164647265737360a81b606082015260800190565b60208082526026908201527f4f776e61626c653a206e6577206f776e657220697320746865207a65726f206160408201526564647265737360d01b606082015260800190565b60208082526029908201527f455243313135353a2063616c6c6572206973206e6f74206f776e6572206e6f7260408201526808185c1c1c9bdd995960ba1b606082015260800190565b60208082526025908201527f455243313135353a207472616e7366657220746f20746865207a65726f206164604082015264647265737360d81b606082015260800190565b60208082526032908201527f455243313135353a207472616e736665722063616c6c6572206973206e6f74206040820152711bdddb995c881b9bdc88185c1c1c9bdd995960721b606082015260800190565b6020808252602a908201527f455243313135353a20696e73756666696369656e742062616c616e636520666f60408201526939103a3930b739b332b960b11b606082015260800190565b6020808252818101527f4f776e61626c653a2063616c6c6572206973206e6f7420746865206f776e6572604082015260600190565b60208082526029908201527f455243313135353a2073657474696e6720617070726f76616c20737461747573604082015268103337b91039b2b63360b91b606082015260800190565b60208082526029908201527f455243313135353a206163636f756e747320616e6420696473206c656e677468604082015268040dad2e6dac2e8c6d60bb1b606082015260800190565b60208082526028908201527f455243313135353a2069647320616e6420616d6f756e7473206c656e677468206040820152670dad2e6dac2e8c6d60c31b606082015260800190565b60208082526021908201527f455243313135353a206d696e7420746f20746865207a65726f206164647265736040820152607360f81b606082015260800190565b90815260200190565b918252602082015260400190565b60405181810167ffffffffffffffff81118282101715611731576117316117f8565b604052919050565b600067ffffffffffffffff821115611753576117536117f8565b5060209081020190565b60008219821115611770576117706117e2565b500190565b600082821015611787576117876117e2565b500390565b6002810460018216806117a057607f821691505b602082108114156117c157634e487b7160e01b600052602260045260246000fd5b50919050565b60006000198214156117db576117db6117e2565b5060010190565b634e487b7160e01b600052601160045260246000fd5b634e487b7160e01b600052604160045260246000fd5b60e01c90565b600060443d101561182457610721565b600481823e6308c379a0611838825161180e565b1461184257610721565b6040513d600319016004823e80513d67ffffffffffffffff81602484011181841117156118725750505050610721565b8284019250825191508082111561188c5750505050610721565b503d830160208284010111156118a457505050610721565b601f01601f1916810160200160405291505090565b6001600160e01b0319811681146118cf57600080fd5b5056fea26469706673582212208afc9246d6c8838d40f07731335b9dcb1d1a9ab39d6795d6418377b197b820ee64736f6c63430008000033",
  "immutableReferences": {},
  "source": "pragma solidity 0.8.0;\n\nimport \"@openzeppelin/contracts/token/ERC1155/ERC1155.sol\";\nimport \"@openzeppelin/contracts/access/Ownable.sol\";\nimport \"@openzeppelin/contracts/utils/Counters.sol\";\n\n\n\ncontract Token is ERC1155, Ownable {\n\n  using Counters for Counters.Counter;\n  Counters.Counter private _tokenIds;\n\n\n\n  constructor (string memory uri_) ERC1155 (uri_) {\n     \n    _setURI(uri_);\n  \n  }\n\n  function _mintItem( uint256 amount) public returns (uint256) {\n     \n    _tokenIds.increment();\n    uint256 id = _tokenIds.current();\n    _mint(msg.sender, id,amount,\"\");\n    return id;\n  \n  }\n\n}\n   \n        \n    \n",
  "sourcePath": "/home/gokulalex/nft_marketplace/contracts/ERC1155Token.sol",
  "compiler": {
    "name": "solc",
    "version": "0.8.0+commit.c7dfd78e.Emscripten.clang"
  },
  "schemaVersion": "3.3.1",
  "updatedAt": "2021-08-31T03:38:36.900Z",
  "devdoc": {
    "kind": "dev",
    "methods": {
      "balanceOf(address,uint256)": {
        "details": "See {IERC1155-balanceOf}. Requirements: - `account` cannot be the zero address."
      },
      "balanceOfBatch(address[],uint256[])": {
        "details": "See {IERC1155-balanceOfBatch}. Requirements: - `accounts` and `ids` must have the same length."
      },
      "isApprovedForAll(address,address)": {
        "details": "See {IERC1155-isApprovedForAll}."
      },
      "owner()": {
        "details": "Returns the address of the current owner."
      },
      "renounceOwnership()": {
        "details": "Leaves the contract without owner. It will not be possible to call `onlyOwner` functions anymore. Can only be called by the current owner. NOTE: Renouncing ownership will leave the contract without an owner, thereby removing any functionality that is only available to the owner."
      },
      "safeBatchTransferFrom(address,address,uint256[],uint256[],bytes)": {
        "details": "See {IERC1155-safeBatchTransferFrom}."
      },
      "safeTransferFrom(address,address,uint256,uint256,bytes)": {
        "details": "See {IERC1155-safeTransferFrom}."
      },
      "setApprovalForAll(address,bool)": {
        "details": "See {IERC1155-setApprovalForAll}."
      },
      "supportsInterface(bytes4)": {
        "details": "See {IERC165-supportsInterface}."
      },
      "transferOwnership(address)": {
        "details": "Transfers ownership of the contract to a new account (`newOwner`). Can only be called by the current owner."
      },
      "uri(uint256)": {
        "details": "See {IERC1155MetadataURI-uri}. This implementation returns the same URI for *all* token types. It relies on the token type ID substitution mechanism https://eips.ethereum.org/EIPS/eip-1155#metadata[defined in the EIP]. Clients calling this function must replace the `\\{id\\}` substring with the actual token type ID."
      }
    },
    "version": 1
  },
  "userdoc": {
    "kind": "user",
    "methods": {},
    "version": 1
  }
}