{
  "contractName": "TokenFactory",
  "abi": [
    {
      "inputs": [
        {
          "internalType": "contract NFT_Data",
          "name": "_NFTdata",
          "type": "address"
        },
        {
          "internalType": "contract MarketPlace",
          "name": "_MarketPlace",
          "type": "address"
        }
      ],
      "stateMutability": "nonpayable",
      "type": "constructor"
    },
    {
      "anonymous": false,
      "inputs": [
        {
          "indexed": false,
          "internalType": "contract NFT",
          "name": "_NFT",
          "type": "address"
        },
        {
          "indexed": false,
          "internalType": "address",
          "name": "owner",
          "type": "address"
        },
        {
          "indexed": false,
          "internalType": "string",
          "name": "name",
          "type": "string"
        },
        {
          "indexed": false,
          "internalType": "string",
          "name": "Type",
          "type": "string"
        }
      ],
      "name": "NFTCreated",
      "type": "event"
    },
    {
      "anonymous": false,
      "inputs": [
        {
          "indexed": false,
          "internalType": "contract NFT",
          "name": "_NFT",
          "type": "address"
        },
        {
          "indexed": false,
          "internalType": "uint256",
          "name": "tokenId",
          "type": "uint256"
        },
        {
          "indexed": false,
          "internalType": "address",
          "name": "_newOwner",
          "type": "address"
        }
      ],
      "name": "OwnershipUpdated",
      "type": "event"
    },
    {
      "anonymous": false,
      "inputs": [
        {
          "indexed": false,
          "internalType": "contract NFT",
          "name": "_NFT",
          "type": "address"
        },
        {
          "indexed": false,
          "internalType": "uint256",
          "name": "tokenId",
          "type": "uint256"
        },
        {
          "indexed": false,
          "internalType": "string",
          "name": "_status",
          "type": "string"
        }
      ],
      "name": "statusUpdated",
      "type": "event"
    },
    {
      "inputs": [
        {
          "internalType": "uint256",
          "name": "",
          "type": "uint256"
        }
      ],
      "name": "Allnfts",
      "outputs": [
        {
          "internalType": "contract NFT",
          "name": "_NFT",
          "type": "address"
        },
        {
          "internalType": "address",
          "name": "owner",
          "type": "address"
        },
        {
          "internalType": "uint256",
          "name": "tokenId",
          "type": "uint256"
        },
        {
          "internalType": "string",
          "name": "NFTtype",
          "type": "string"
        },
        {
          "internalType": "string",
          "name": "name",
          "type": "string"
        },
        {
          "internalType": "string",
          "name": "uri",
          "type": "string"
        },
        {
          "internalType": "string",
          "name": "description",
          "type": "string"
        },
        {
          "internalType": "uint256",
          "name": "price",
          "type": "uint256"
        },
        {
          "internalType": "uint256",
          "name": "timestamp",
          "type": "uint256"
        },
        {
          "internalType": "string",
          "name": "status",
          "type": "string"
        }
      ],
      "stateMutability": "view",
      "type": "function"
    },
    {
      "inputs": [
        {
          "internalType": "uint256",
          "name": "",
          "type": "uint256"
        }
      ],
      "name": "NFT_addresses",
      "outputs": [
        {
          "internalType": "address",
          "name": "",
          "type": "address"
        }
      ],
      "stateMutability": "view",
      "type": "function"
    },
    {
      "inputs": [
        {
          "internalType": "uint256",
          "name": "",
          "type": "uint256"
        }
      ],
      "name": "Owners",
      "outputs": [
        {
          "internalType": "address",
          "name": "",
          "type": "address"
        }
      ],
      "stateMutability": "view",
      "type": "function"
    },
    {
      "inputs": [
        {
          "internalType": "address",
          "name": "",
          "type": "address"
        }
      ],
      "name": "balances",
      "outputs": [
        {
          "internalType": "uint256",
          "name": "",
          "type": "uint256"
        }
      ],
      "stateMutability": "view",
      "type": "function"
    },
    {
      "inputs": [
        {
          "internalType": "uint256",
          "name": "",
          "type": "uint256"
        }
      ],
      "name": "creators",
      "outputs": [
        {
          "internalType": "address",
          "name": "",
          "type": "address"
        }
      ],
      "stateMutability": "view",
      "type": "function"
    },
    {
      "inputs": [
        {
          "internalType": "address",
          "name": "",
          "type": "address"
        }
      ],
      "name": "isOwner",
      "outputs": [
        {
          "internalType": "bool",
          "name": "",
          "type": "bool"
        }
      ],
      "stateMutability": "view",
      "type": "function"
    },
    {
      "inputs": [],
      "name": "numnfts",
      "outputs": [
        {
          "internalType": "uint256",
          "name": "_value",
          "type": "uint256"
        }
      ],
      "stateMutability": "view",
      "type": "function"
    },
    {
      "inputs": [
        {
          "internalType": "uint256",
          "name": "",
          "type": "uint256"
        }
      ],
      "name": "tokenIds",
      "outputs": [
        {
          "internalType": "uint256",
          "name": "",
          "type": "uint256"
        }
      ],
      "stateMutability": "view",
      "type": "function"
    },
    {
      "inputs": [
        {
          "internalType": "string",
          "name": "_symbol",
          "type": "string"
        },
        {
          "internalType": "string",
          "name": "_NFTtype",
          "type": "string"
        },
        {
          "internalType": "string",
          "name": "_name",
          "type": "string"
        },
        {
          "internalType": "string",
          "name": "_uri",
          "type": "string"
        },
        {
          "internalType": "string",
          "name": "_description",
          "type": "string"
        },
        {
          "internalType": "uint256",
          "name": "_price",
          "type": "uint256"
        }
      ],
      "name": "createNFT",
      "outputs": [
        {
          "internalType": "address",
          "name": "",
          "type": "address"
        }
      ],
      "stateMutability": "nonpayable",
      "type": "function"
    },
    {
      "inputs": [],
      "name": "getNFTAddresses",
      "outputs": [
        {
          "internalType": "address[]",
          "name": "",
          "type": "address[]"
        }
      ],
      "stateMutability": "view",
      "type": "function"
    },
    {
      "inputs": [
        {
          "internalType": "address",
          "name": "owner",
          "type": "address"
        }
      ],
      "name": "balanceOf",
      "outputs": [
        {
          "internalType": "uint256",
          "name": "",
          "type": "uint256"
        }
      ],
      "stateMutability": "view",
      "type": "function"
    },
    {
      "inputs": [
        {
          "internalType": "uint256",
          "name": "tokenId",
          "type": "uint256"
        }
      ],
      "name": "ownerOf",
      "outputs": [
        {
          "internalType": "address",
          "name": "",
          "type": "address"
        }
      ],
      "stateMutability": "view",
      "type": "function"
    },
    {
      "inputs": [
        {
          "internalType": "address",
          "name": "to",
          "type": "address"
        },
        {
          "internalType": "uint256",
          "name": "tokenId",
          "type": "uint256"
        }
      ],
      "name": "approve",
      "outputs": [],
      "stateMutability": "nonpayable",
      "type": "function"
    },
    {
      "inputs": [
        {
          "internalType": "address",
          "name": "owner",
          "type": "address"
        },
        {
          "internalType": "address",
          "name": "operator",
          "type": "address"
        }
      ],
      "name": "isApprovedForAll",
      "outputs": [
        {
          "internalType": "bool",
          "name": "",
          "type": "bool"
        }
      ],
      "stateMutability": "view",
      "type": "function"
    },
    {
      "inputs": [
        {
          "internalType": "address",
          "name": "from",
          "type": "address"
        },
        {
          "internalType": "address",
          "name": "to",
          "type": "address"
        },
        {
          "internalType": "uint256",
          "name": "tokenId",
          "type": "uint256"
        }
      ],
      "name": "transferFrom",
      "outputs": [],
      "stateMutability": "nonpayable",
      "type": "function"
    },
    {
      "inputs": [
        {
          "internalType": "address",
          "name": "from",
          "type": "address"
        },
        {
          "internalType": "address",
          "name": "to",
          "type": "address"
        },
        {
          "internalType": "uint256",
          "name": "tokenId",
          "type": "uint256"
        }
      ],
      "name": "safeTransferFrom",
      "outputs": [],
      "stateMutability": "nonpayable",
      "type": "function"
    },
    {
      "inputs": [
        {
          "internalType": "uint256",
          "name": "_tokenId",
          "type": "uint256"
        }
      ],
      "name": "burn",
      "outputs": [],
      "stateMutability": "nonpayable",
      "type": "function"
    },
    {
      "inputs": [
        {
          "internalType": "address",
          "name": "operator",
          "type": "address"
        },
        {
          "internalType": "bool",
          "name": "approved",
          "type": "bool"
        }
      ],
      "name": "setApprovalForAll",
      "outputs": [],
      "stateMutability": "nonpayable",
      "type": "function"
    }
  ],
  "bytecode": "0x608060405234801561001057600080fd5b50604051620034ec380380620034ec83398101604081905261003191610062565b600e80546001600160a01b039384166001600160a01b031991821617909155601080549290931691161790556100b3565b60008060408385031215610074578182fd5b825161007f8161009b565b60208401519092506100908161009b565b809150509250929050565b6001600160a01b03811681146100b057600080fd5b50565b61342980620000c36000396000f3fe60806040523480156200001157600080fd5b5060043610620001305760003560e01c80638a1ce90811620000b1578063d114157d116200007b578063d114157d146200028d578063d58778d614620002a4578063dfad9f5114620002bb578063e985e9c514620002ea578063ebab6cbb14620003015762000130565b80638a1ce908146200023e5780638d6b98fb1462000255578063a22cb465146200025f578063cd53d08e14620002765762000130565b80634125327111620000ff5780634125327114620001ba57806342842e0e14620001d357806342966c6814620001ea5780636352211e146200020157806370a0823114620002275762000130565b8063095ea7b3146200013557806323b872dd146200014e57806327e235e314620001655780632f54bf6e1462000194575b600080fd5b6200014c6200014636600462000f0c565b62000318565b005b6200014c6200015f36600462000e91565b620003e6565b6200017c6200017636600462000e3d565b62000428565b6040516200018b9190620014cf565b60405180910390f35b620001ab620001a536600462000e3d565b6200043a565b6040516200018b919062001205565b620001c46200044f565b6040516200018b9190620011b6565b6200014c620001e436600462000e91565b620004b3565b6200014c620001fb3660046200103b565b620004f5565b62000218620002123660046200103b565b6200056e565b6040516200018b9190620010a2565b6200017c6200023836600462000e3d565b620005ae565b620002186200024f3660046200103b565b620005f5565b6200017c62000620565b6200014c6200027036600462000ed1565b62000626565b62000218620002873660046200103b565b620006be565b620002186200029e36600462000f57565b620006cf565b6200017c620002b53660046200103b565b62000938565b620002d2620002cc3660046200103b565b6200095a565b6040516200018b9a99989796959493929190620012e0565b620001ab620002fb36600462000e5a565b62000c9b565b62000218620003123660046200103b565b62000d2b565b6000818152600660205260408120546001600160a01b0316906200033c8362000d3c565b9050816001600160a01b0316846001600160a01b031614156200037c5760405162461bcd60e51b815260040162000373906200148e565b60405180910390fd5b60405163095ea7b360e01b81526001600160a01b0382169063095ea7b390620003ac90879087906004016200119d565b600060405180830381600087803b158015620003c757600080fd5b505af1158015620003dc573d6000803e3d6000fd5b5050505050505050565b6000620003f38262000d3c565b6040516323b872dd60e01b81529091506001600160a01b038216906323b872dd90620003ac90879087908790600401620010d0565b60026020526000908152604090205481565b60056020526000908152604090205460ff1681565b6060600b805480602002602001604051908101604052809291908181526020018280548015620004a957602002820191906000526020600020905b81546001600160a01b031681526001909101906020018083116200048a575b5050505050905090565b6000620004c08262000d3c565b604051635c46a7ef60e11b81529091506001600160a01b0382169063b88d4fde90620003ac90879087908790600401620010f4565b6000818152600660209081526040808320546001600160a01b03168084526002909252909120546200052a90600190620014f3565b6001600160a01b0382166000908152600260205260409020556200054f600d62000d57565b50600090815260096020526040902080546001600160a01b0319169055565b6000818152600660205260408120546001600160a01b031680620005a65760405162461bcd60e51b8152600401620003739062001445565b90505b919050565b60006001600160a01b038216620005d95760405162461bcd60e51b81526004016200037390620013fb565b506001600160a01b031660009081526002602052604090205490565b600181815481106200060657600080fd5b6000918252602090912001546001600160a01b0316905081565b600d5481565b6001600160a01b038216331415620006525760405162461bcd60e51b81526004016200037390620013c4565b600f5460405163a22cb46560e01b81526001600160a01b039091169063a22cb4659062000686908590859060040162001127565b600060405180830381600087803b158015620006a157600080fd5b505af1158015620006b6573d6000803e3d6000fd5b505050505050565b600481815481106200060657600080fd5b6000620006dd600d62000d81565b6000620006eb600d62000d8a565b9050600033878a88604051620007019062000d8e565b62000710949392919062001142565b604051809103906000f0801580156200072d573d6000803e3d6000fd5b50600b80546001810182556000919091527f0175b7a638427703f0dbe7bb9bbf987a2551717b34e79f33b5b1008d1fa01db90180546001600160a01b0319166001600160a01b0383811691909117909155600e54604051636be0c0f960e11b8152929350169063d7c181f290620007b7908490339087908e908e908e908e908e9060040162001252565b600060405180830381600087803b158015620007d257600080fd5b505af1158015620007e7573d6000803e3d6000fd5b50505060008381526006602090815260408083208054336001600160a01b031991821681179092556001805480820182557fb10e2d527612073b26eecdfd717e6a320cf44b4afac2b0732d9fcbe2b7fa0cf6018054831684179055600385528386208054831684179055600480548083019091557f8a35acfbc15ff81a39ae7d344fd709f28e8600b4aa8c65c6b64bfe7fe36bd19b0180549092168317909155908452600290925290912054620008a0925090620014d8565b33600090815260026020908152604080832093909355848252600990522080546001600160a01b0319166001600160a01b0383811691909117909155601054620008ed9116600162000318565b7f8133d52b5fb2b0849bf4548b2e5363bdac24600aeb5eb5a2f0b89a40a30adb0c8133898b60405162000924949392919062001210565b60405180910390a198975050505050505050565b600081815481106200094957600080fd5b600091825260209091200154905081565b600a81815481106200096b57600080fd5b60009182526020909120600a909102018054600182015460028301546003840180546001600160a01b039485169650929093169390929091620009ae906200150d565b80601f0160208091040260200160405190810160405280929190818152602001828054620009dc906200150d565b801562000a2d5780601f1062000a015761010080835404028352916020019162000a2d565b820191906000526020600020905b81548152906001019060200180831162000a0f57829003601f168201915b50505050509080600401805462000a44906200150d565b80601f016020809104026020016040519081016040528092919081815260200182805462000a72906200150d565b801562000ac35780601f1062000a975761010080835404028352916020019162000ac3565b820191906000526020600020905b81548152906001019060200180831162000aa557829003601f168201915b50505050509080600501805462000ada906200150d565b80601f016020809104026020016040519081016040528092919081815260200182805462000b08906200150d565b801562000b595780601f1062000b2d5761010080835404028352916020019162000b59565b820191906000526020600020905b81548152906001019060200180831162000b3b57829003601f168201915b50505050509080600601805462000b70906200150d565b80601f016020809104026020016040519081016040528092919081815260200182805462000b9e906200150d565b801562000bef5780601f1062000bc35761010080835404028352916020019162000bef565b820191906000526020600020905b81548152906001019060200180831162000bd157829003601f168201915b50505050509080600701549080600801549080600901805462000c12906200150d565b80601f016020809104026020016040519081016040528092919081815260200182805462000c40906200150d565b801562000c915780601f1062000c655761010080835404028352916020019162000c91565b820191906000526020600020905b81548152906001019060200180831162000c7357829003601f168201915b505050505090508a565b600f5460405163e985e9c560e01b81526000916001600160a01b03169063e985e9c59062000cd09086908690600401620010b6565b60206040518083038186803b15801562000ce957600080fd5b505afa15801562000cfe573d6000803e3d6000fd5b505050506040513d601f19601f8201168201806040525081019062000d24919062000f38565b9392505050565b600b81815481106200060657600080fd5b6000908152600960205260409020546001600160a01b031690565b80548062000d795760405162461bcd60e51b815260040162000373906200138d565b600019019055565b80546001019055565b5490565b611e6b806200158983390190565b80356001600160a01b0381168114620005a957600080fd5b600082601f83011262000dc5578081fd5b813567ffffffffffffffff8082111562000de35762000de362001560565b604051601f8301601f19168101602001828111828210171562000e0a5762000e0a62001560565b60405282815284830160200186101562000e22578384fd5b82602086016020830137918201602001929092529392505050565b60006020828403121562000e4f578081fd5b62000d248262000d9c565b6000806040838503121562000e6d578081fd5b62000e788362000d9c565b915062000e886020840162000d9c565b90509250929050565b60008060006060848603121562000ea6578081fd5b62000eb18462000d9c565b925062000ec16020850162000d9c565b9150604084013590509250925092565b6000806040838503121562000ee4578182fd5b62000eef8362000d9c565b9150602083013562000f018162001576565b809150509250929050565b6000806040838503121562000f1f578182fd5b62000f2a8362000d9c565b946020939093013593505050565b60006020828403121562000f4a578081fd5b815162000d248162001576565b60008060008060008060c0878903121562000f70578182fd5b863567ffffffffffffffff8082111562000f88578384fd5b62000f968a838b0162000db4565b9750602089013591508082111562000fac578384fd5b62000fba8a838b0162000db4565b9650604089013591508082111562000fd0578384fd5b62000fde8a838b0162000db4565b9550606089013591508082111562000ff4578384fd5b620010028a838b0162000db4565b9450608089013591508082111562001018578384fd5b506200102789828a0162000db4565b92505060a087013590509295509295509295565b6000602082840312156200104d578081fd5b5035919050565b60008151808452815b818110156200107b576020818501810151868301820152016200105d565b818111156200108d5782602083870101525b50601f01601f19169290920160200192915050565b6001600160a01b0391909116815260200190565b6001600160a01b0392831681529116602082015260400190565b6001600160a01b039384168152919092166020820152604081019190915260600190565b6001600160a01b039384168152919092166020820152604081019190915260806060820181905260009082015260a00190565b6001600160a01b039290921682521515602082015260400190565b6001600160a01b0385168152608060208201819052600090620011689083018662001054565b82810360408401526200117c818662001054565b9050828103606084015262001192818562001054565b979650505050505050565b6001600160a01b03929092168252602082015260400190565b6020808252825182820181905260009190848201906040850190845b81811015620011f95783516001600160a01b031683529284019291840191600101620011d2565b50909695505050505050565b901515815260200190565b6001600160a01b038581168252841660208201526080604082018190526000906200123e9083018562001054565b828103606084015262001192818562001054565b6001600160a01b038981168252881660208201526040810187905261010060608201819052600090620012888382018962001054565b905082810360808401526200129e818862001054565b905082810360a0840152620012b4818762001054565b905082810360c0840152620012ca818662001054565b9150508260e08301529998505050505050505050565b6001600160a01b038b811682528a1660208201526040810189905261014060608201819052600090620013168382018b62001054565b905082810360808401526200132c818a62001054565b905082810360a084015262001342818962001054565b905082810360c084015262001358818862001054565b90508560e0840152846101008401528281036101208401526200137c818562001054565b9d9c50505050505050505050505050565b6020808252601b908201527f436f756e7465723a2064656372656d656e74206f766572666c6f770000000000604082015260600190565b60208082526019908201527f4552433732313a20617070726f766520746f2063616c6c657200000000000000604082015260600190565b6020808252602a908201527f4552433732313a2062616c616e636520717565727920666f7220746865207a65604082015269726f206164647265737360b01b606082015260800190565b60208082526029908201527f4552433732313a206f776e657220717565727920666f72206e6f6e657869737460408201526832b73a103a37b5b2b760b91b606082015260800190565b60208082526021908201527f4552433732313a20617070726f76616c20746f2063757272656e74206f776e656040820152603960f91b606082015260800190565b90815260200190565b60008219821115620014ee57620014ee6200154a565b500190565b6000828210156200150857620015086200154a565b500390565b6002810460018216806200152257607f821691505b602082108114156200154457634e487b7160e01b600052602260045260246000fd5b50919050565b634e487b7160e01b600052601160045260246000fd5b634e487b7160e01b600052604160045260246000fd5b80151581146200158557600080fd5b5056fe60806040523480156200001157600080fd5b5060405162001e6b38038062001e6b8339810160408190526200003491620003f3565b8251839083906200004d906000906020850190620002a2565b50805162000063906001906020840190620002a2565b505050600062000078620000dd60201b60201c565b600780546001600160a01b0319166001600160a01b038316908117909155604051919250906000907f8be0079c531659141344cd1fd0a4f28419497f9722a3daafe3b4186f6b6457e0908290a350620000d28482620000e1565b5050505050620005d2565b3390565b6000620000fa60086200013460201b620008321760201c565b60006200011360086200013d60201b6200083b1760201c565b905062000121848262000141565b6200012d818462000235565b9392505050565b80546001019055565b5490565b6001600160a01b038216620001735760405162461bcd60e51b81526004016200016a9062000525565b60405180910390fd5b6200017e8162000285565b156200019e5760405162461bcd60e51b81526004016200016a90620004a0565b620001ac6000838362000280565b6001600160a01b0382166000908152600360205260408120805460019290620001d79084906200055a565b909155505060008181526002602052604080822080546001600160a01b0319166001600160a01b03861690811790915590518392907fddf252ad1be2c89b69c2b068fc378daa952ba7f163c4a11628f55a4df523b3ef908290a45050565b620002408262000285565b6200025f5760405162461bcd60e51b81526004016200016a90620004d7565b600082815260066020908152604090912082516200028092840190620002a2565b505050565b6000908152600260205260409020546001600160a01b0316151590565b828054620002b0906200057f565b90600052602060002090601f016020900481019282620002d457600085556200031f565b82601f10620002ef57805160ff19168380011785556200031f565b828001600101855582156200031f579182015b828111156200031f57825182559160200191906001019062000302565b506200032d92915062000331565b5090565b5b808211156200032d576000815560010162000332565b600082601f83011262000359578081fd5b81516001600160401b0380821115620003765762000376620005bc565b6040516020601f8401601f19168201810183811183821017156200039e576200039e620005bc565b6040528382528584018101871015620003b5578485fd5b8492505b83831015620003d85785830181015182840182015291820191620003b9565b83831115620003e957848185840101525b5095945050505050565b6000806000806080858703121562000409578384fd5b84516001600160a01b038116811462000420578485fd5b60208601519094506001600160401b03808211156200043d578485fd5b6200044b8883890162000348565b9450604087015191508082111562000461578384fd5b6200046f8883890162000348565b9350606087015191508082111562000485578283fd5b50620004948782880162000348565b91505092959194509250565b6020808252601c908201527f4552433732313a20746f6b656e20616c7265616479206d696e74656400000000604082015260600190565b6020808252602e908201527f45524337323155524953746f726167653a2055524920736574206f66206e6f6e60408201526d32bc34b9ba32b73a103a37b5b2b760911b606082015260800190565b6020808252818101527f4552433732313a206d696e7420746f20746865207a65726f2061646472657373604082015260600190565b600082198211156200057a57634e487b7160e01b81526011600452602481fd5b500190565b6002810460018216806200059457607f821691505b60208210811415620005b657634e487b7160e01b600052602260045260246000fd5b50919050565b634e487b7160e01b600052604160045260246000fd5b61188980620005e26000396000f3fe608060405234801561001057600080fd5b506004361061010b5760003560e01c8063715018a6116100a2578063b88d4fde11610071578063b88d4fde14610207578063c87b56dd1461021a578063d0def5211461022d578063e985e9c514610240578063f2fde38b146102535761010b565b8063715018a6146101dc5780638da5cb5b146101e457806395d89b41146101ec578063a22cb465146101f45761010b565b806323b872dd116100de57806323b872dd1461018357806342842e0e146101965780636352211e146101a957806370a08231146101bc5761010b565b806301ffc9a71461011057806306fdde0314610139578063081812fc1461014e578063095ea7b31461016e575b600080fd5b61012361011e366004611148565b610266565b6040516101309190611244565b60405180910390f35b6101416102ae565b604051610130919061124f565b61016161015c366004611180565b610340565b60405161013091906111f3565b61018161017c36600461111f565b61038c565b005b610181610191366004610fd2565b610412565b6101816101a4366004610fd2565b61044a565b6101616101b7366004611180565b610465565b6101cf6101ca366004610f86565b61049a565b6040516101309190611716565b6101816104de565b610161610567565b610141610576565b610181610202366004611086565b610585565b61018161021536600461100d565b610653565b610141610228366004611180565b610692565b6101cf61023b3660046110c0565b610715565b61012361024e366004610fa0565b610743565b610181610261366004610f86565b610771565b60006001600160e01b031982166380ac58cd60e01b148061029757506001600160e01b03198216635b5e139f60e01b145b806102a657506102a68261083f565b90505b919050565b6060600080546102bd9061178e565b80601f01602080910402602001604051908101604052809291908181526020018280546102e99061178e565b80156103365780601f1061030b57610100808354040283529160200191610336565b820191906000526020600020905b81548152906001019060200180831161031957829003601f168201915b5050505050905090565b600061034b82610858565b6103705760405162461bcd60e51b81526004016103679061156b565b60405180910390fd5b506000908152600460205260409020546001600160a01b031690565b600061039782610465565b9050806001600160a01b0316836001600160a01b031614156103cb5760405162461bcd60e51b815260040161036790611684565b336001600160a01b03821614806103e757506103e78133610743565b6104035760405162461bcd60e51b8152600401610367906113f8565b61040d8383610875565b505050565b61042361041d6108e3565b826108e7565b61043f5760405162461bcd60e51b8152600401610367906116c5565b61040d838383610978565b61040d83838360405180602001604052806000815250610653565b6000818152600260205260408120546001600160a01b0316806102a65760405162461bcd60e51b81526004016103679061149f565b60006001600160a01b0382166104c25760405162461bcd60e51b815260040161036790611455565b506001600160a01b031660009081526003602052604090205490565b6104e66108e3565b6001600160a01b03166104f7610567565b6001600160a01b03161461051d5760405162461bcd60e51b8152600401610367906115b7565b6007546040516000916001600160a01b0316907f8be0079c531659141344cd1fd0a4f28419497f9722a3daafe3b4186f6b6457e0908390a3600780546001600160a01b0319169055565b6007546001600160a01b031690565b6060600180546102bd9061178e565b61058d6108e3565b6001600160a01b0316826001600160a01b031614156105be5760405162461bcd60e51b815260040161036790611375565b80600560006105cb6108e3565b6001600160a01b03908116825260208083019390935260409182016000908120918716808252919093529120805460ff19169215159290921790915561060f6108e3565b6001600160a01b03167f17307eab39ab6107e8899845ad3d59bd9653f200f220920489ca2b5937696c31836040516106479190611244565b60405180910390a35050565b61066461065e6108e3565b836108e7565b6106805760405162461bcd60e51b8152600401610367906116c5565b61068c84848484610aa5565b50505050565b606061069d82610858565b6106b95760405162461bcd60e51b815260040161036790611635565b60006106c3610ad8565b905060008151116106e3576040518060200160405280600081525061070e565b806106ed84610b07565b6040516020016106fe9291906111c4565b6040516020818303038152906040525b9392505050565b60006107216008610832565b600061072d600861083b565b90506107398482610c22565b61070e8184610d01565b6001600160a01b03918216600090815260056020908152604080832093909416825291909152205460ff1690565b6107796108e3565b6001600160a01b031661078a610567565b6001600160a01b0316146107b05760405162461bcd60e51b8152600401610367906115b7565b6001600160a01b0381166107d65760405162461bcd60e51b8152600401610367906112b4565b6007546040516001600160a01b038084169216907f8be0079c531659141344cd1fd0a4f28419497f9722a3daafe3b4186f6b6457e090600090a3600780546001600160a01b0319166001600160a01b0392909216919091179055565b80546001019055565b5490565b6001600160e01b031981166301ffc9a760e01b14919050565b6000908152600260205260409020546001600160a01b0316151590565b600081815260046020526040902080546001600160a01b0319166001600160a01b03841690811790915581906108aa82610465565b6001600160a01b03167f8c5be1e5ebec7d5bd14f71427d1e84f3dd0314c0f7b2291e5b200ac8c7c3b92560405160405180910390a45050565b3390565b6000806108f383610465565b6001600160a01b0316141561091a5760405162461bcd60e51b8152600401610367906113ac565b600061092583610465565b9050806001600160a01b0316846001600160a01b031614806109605750836001600160a01b031661095584610340565b6001600160a01b0316145b8061097057506109708185610743565b949350505050565b826001600160a01b031661098b82610465565b6001600160a01b0316146109b15760405162461bcd60e51b8152600401610367906115ec565b6001600160a01b0382166109d75760405162461bcd60e51b815260040161036790611331565b6109e283838361040d565b6109ed600082610875565b6001600160a01b0383166000908152600360205260408120805460019290610a1690849061174b565b90915550506001600160a01b0382166000908152600360205260408120805460019290610a4490849061171f565b909155505060008181526002602052604080822080546001600160a01b0319166001600160a01b0386811691821790925591518493918716917fddf252ad1be2c89b69c2b068fc378daa952ba7f163c4a11628f55a4df523b3ef91a4505050565b610ab0848484610978565b610abc84848484610d45565b61068c5760405162461bcd60e51b815260040161036790611262565b60408051808201909152601581527468747470733a2f2f697066732e696f2f697066732f60581b602082015290565b606081610b2c57506040805180820190915260018152600360fc1b60208201526102a9565b8160005b8115610b565780610b40816117c9565b9150610b4f9050600a83611737565b9150610b30565b60008167ffffffffffffffff811115610b7f57634e487b7160e01b600052604160045260246000fd5b6040519080825280601f01601f191660200182016040528015610ba9576020820181803683370190505b5090505b841561097057610bbe60018361174b565b9150610bcb600a866117e4565b610bd690603061171f565b60f81b818381518110610bf957634e487b7160e01b600052603260045260246000fd5b60200101906001600160f81b031916908160001a905350610c1b600a86611737565b9450610bad565b6001600160a01b038216610c485760405162461bcd60e51b815260040161036790611536565b610c5181610858565b15610c6e5760405162461bcd60e51b8152600401610367906112fa565b610c7a6000838361040d565b6001600160a01b0382166000908152600360205260408120805460019290610ca390849061171f565b909155505060008181526002602052604080822080546001600160a01b0319166001600160a01b03861690811790915590518392907fddf252ad1be2c89b69c2b068fc378daa952ba7f163c4a11628f55a4df523b3ef908290a45050565b610d0a82610858565b610d265760405162461bcd60e51b8152600401610367906114e8565b6000828152600660209081526040909120825161040d92840190610e66565b6000610d59846001600160a01b0316610e60565b15610e5557836001600160a01b031663150b7a02610d756108e3565b8786866040518563ffffffff1660e01b8152600401610d979493929190611207565b602060405180830381600087803b158015610db157600080fd5b505af1925050508015610de1575060408051601f3d908101601f19168201909252610dde91810190611164565b60015b610e3b573d808015610e0f576040519150601f19603f3d011682016040523d82523d6000602084013e610e14565b606091505b508051610e335760405162461bcd60e51b815260040161036790611262565b805181602001fd5b6001600160e01b031916630a85bd0160e11b149050610970565b506001949350505050565b3b151590565b828054610e729061178e565b90600052602060002090601f016020900481019282610e945760008555610eda565b82601f10610ead57805160ff1916838001178555610eda565b82800160010185558215610eda579182015b82811115610eda578251825591602001919060010190610ebf565b50610ee6929150610eea565b5090565b5b80821115610ee65760008155600101610eeb565b600067ffffffffffffffff80841115610f1a57610f1a611824565b604051601f8501601f191681016020018281118282101715610f3e57610f3e611824565b604052848152915081838501861015610f5657600080fd5b8484602083013760006020868301015250509392505050565b80356001600160a01b03811681146102a957600080fd5b600060208284031215610f97578081fd5b61070e82610f6f565b60008060408385031215610fb2578081fd5b610fbb83610f6f565b9150610fc960208401610f6f565b90509250929050565b600080600060608486031215610fe6578081fd5b610fef84610f6f565b9250610ffd60208501610f6f565b9150604084013590509250925092565b60008060008060808587031215611022578081fd5b61102b85610f6f565b935061103960208601610f6f565b925060408501359150606085013567ffffffffffffffff81111561105b578182fd5b8501601f8101871361106b578182fd5b61107a87823560208401610eff565b91505092959194509250565b60008060408385031215611098578182fd5b6110a183610f6f565b9150602083013580151581146110b5578182fd5b809150509250929050565b600080604083850312156110d2578182fd5b6110db83610f6f565b9150602083013567ffffffffffffffff8111156110f6578182fd5b8301601f81018513611106578182fd5b61111585823560208401610eff565b9150509250929050565b60008060408385031215611131578182fd5b61113a83610f6f565b946020939093013593505050565b600060208284031215611159578081fd5b813561070e8161183a565b600060208284031215611175578081fd5b815161070e8161183a565b600060208284031215611191578081fd5b5035919050565b600081518084526111b0816020860160208601611762565b601f01601f19169290920160200192915050565b600083516111d6818460208801611762565b8351908301906111ea818360208801611762565b01949350505050565b6001600160a01b0391909116815260200190565b6001600160a01b038581168252841660208201526040810183905260806060820181905260009061123a90830184611198565b9695505050505050565b901515815260200190565b60006020825261070e6020830184611198565b60208082526032908201527f4552433732313a207472616e7366657220746f206e6f6e20455243373231526560408201527131b2b4bb32b91034b6b83632b6b2b73a32b960711b606082015260800190565b60208082526026908201527f4f776e61626c653a206e6577206f776e657220697320746865207a65726f206160408201526564647265737360d01b606082015260800190565b6020808252601c908201527f4552433732313a20746f6b656e20616c7265616479206d696e74656400000000604082015260600190565b60208082526024908201527f4552433732313a207472616e7366657220746f20746865207a65726f206164646040820152637265737360e01b606082015260800190565b60208082526019908201527f4552433732313a20617070726f766520746f2063616c6c657200000000000000604082015260600190565b6020808252602c908201527f4552433732313a206f70657261746f7220717565727920666f72206e6f6e657860408201526b34b9ba32b73a103a37b5b2b760a11b606082015260800190565b60208082526038908201527f4552433732313a20617070726f76652063616c6c6572206973206e6f74206f7760408201527f6e6572206e6f7220617070726f76656420666f7220616c6c0000000000000000606082015260800190565b6020808252602a908201527f4552433732313a2062616c616e636520717565727920666f7220746865207a65604082015269726f206164647265737360b01b606082015260800190565b60208082526029908201527f4552433732313a206f776e657220717565727920666f72206e6f6e657869737460408201526832b73a103a37b5b2b760b91b606082015260800190565b6020808252602e908201527f45524337323155524953746f726167653a2055524920736574206f66206e6f6e60408201526d32bc34b9ba32b73a103a37b5b2b760911b606082015260800190565b6020808252818101527f4552433732313a206d696e7420746f20746865207a65726f2061646472657373604082015260600190565b6020808252602c908201527f4552433732313a20617070726f76656420717565727920666f72206e6f6e657860408201526b34b9ba32b73a103a37b5b2b760a11b606082015260800190565b6020808252818101527f4f776e61626c653a2063616c6c6572206973206e6f7420746865206f776e6572604082015260600190565b60208082526029908201527f4552433732313a207472616e73666572206f6620746f6b656e2074686174206960408201526839903737ba1037bbb760b91b606082015260800190565b6020808252602f908201527f4552433732314d657461646174613a2055524920717565727920666f72206e6f60408201526e3732bc34b9ba32b73a103a37b5b2b760891b606082015260800190565b60208082526021908201527f4552433732313a20617070726f76616c20746f2063757272656e74206f776e656040820152603960f91b606082015260800190565b60208082526031908201527f4552433732313a207472616e736665722063616c6c6572206973206e6f74206f6040820152701ddb995c881b9bdc88185c1c1c9bdd9959607a1b606082015260800190565b90815260200190565b60008219821115611732576117326117f8565b500190565b6000826117465761174661180e565b500490565b60008282101561175d5761175d6117f8565b500390565b60005b8381101561177d578181015183820152602001611765565b8381111561068c5750506000910152565b6002810460018216806117a257607f821691505b602082108114156117c357634e487b7160e01b600052602260045260246000fd5b50919050565b60006000198214156117dd576117dd6117f8565b5060010190565b6000826117f3576117f361180e565b500690565b634e487b7160e01b600052601160045260246000fd5b634e487b7160e01b600052601260045260246000fd5b634e487b7160e01b600052604160045260246000fd5b6001600160e01b03198116811461185057600080fd5b5056fea26469706673582212201685cfe004a8d75405971c26066bcd7ef464fee8e98f1f38952eb7815279bd8964736f6c63430008000033a264697066735822122099b89249eb32bb6fea75b519cc97ea8480d1afa9ab960e327bf08e5f2d9625e364736f6c63430008000033",
  "immutableReferences": {},
  "source": "// SPDX-License-Identifier: MIT\n\npragma solidity ^0.8.0;\n\nimport \"./NFT.sol\";\nimport \"./Events/Events.sol\";\nimport \"./Storage.sol\";\nimport \"./Modifiers/Modifiers.sol\";\nimport \"./MarketPlace.sol\";\nimport \"./NFT_Data.sol\";\nimport \"./External/Counters.sol\";\n\n\ncontract TokenFactory is Storage,NFT_Events,NFT_modifiers{\n    \n    \n    using SafeMath for uint256;\n    \n    using Counters for Counters.Counter;\n  \n    Counters.Counter public numnfts;\n    \n    \n    // Data contract\n    \n       NFT_Data NEW_NFTData;\n       \n       NFT NFT_;  \n       \n       address NFT_MarketPlace;\n       \n       \n    // constructor  \n    \n    \n        constructor (NFT_Data _NFTdata, MarketPlace _MarketPlace) {\n        \n            NEW_NFTData = _NFTdata;\n            \n            NFT_MarketPlace = address(_MarketPlace);\n        \n        }\n    \n    \n    // creating NFT\n        \n        \n       function createNFT (\n        \n        string memory _symbol,             // (\"cat\",\"image\",\"MYCat\",\"image.io\",\"MYcat is Unique\",10)\n        string memory _NFTtype,\n        string memory _name,\n        string memory _uri,\n        string memory _description,\n        uint256 _price\n         \n        ) public returns(address) { \n            \n            // Incrementing num of nts\n            \n            numnfts.increment();\n            \n            uint256 _tokenId = numnfts.current();                   // incrementing tokenId  \n      \n            // creating new NFT \n            \n            NFT Nft =  new NFT (msg.sender,_name,_symbol,_uri);\n            \n            // storing the contract address\n            \n            NFT_addresses.push(address(Nft));\n            \n            // saving metadata of the contract\n            \n            NEW_NFTData.Metadata(Nft,msg.sender,_tokenId,_NFTtype,_name,_uri,_description,_price);\n            \n            // updating owner of tokenId\n            \n            owner[_tokenId] = msg.sender;\n            \n            // updating owners\n            \n            Owners.push(msg.sender);\n            \n            // mapping tokenId as creator\n            \n            creator[_tokenId] = msg.sender;\n            \n            // updating creators array\n            \n            creators.push(msg.sender);\n            \n            // updating balances of user\n            \n            balances[msg.sender] =  balances[msg.sender]+1;\n            \n            // mapping tokenId with deploy\n            \n           contractAddress[_tokenId]= address(Nft);\n           \n           approve(NFT_MarketPlace, 1);\n           \n           \n            // triggering an event.\n           \n            emit NFTCreated(\n      \n               Nft,  \n               msg.sender,\n              _name,\n              _NFTtype         \n            \n            );   \n            \n            // returning tokenId \n         \n            return address(Nft);\n        \n        } \n    \n    \n       \n    // get deployed nft addresses   \n  \n    \n    function getNFTAddresses() public view returns(address[] memory) {\n        \n        return NFT_addresses;\n    }\n    \n    \n    \n    // get tokenId\n    \n    \n    function getAddress(uint256 _tokenId) internal view returns(address) {\n\n        return contractAddress[_tokenId];\n    }\n    \n    \n    // balance of\n    \n    \n    function balanceOf(address owner) public view virtual returns (uint256) {\n        \n        require(owner != address(0), \"ERC721: balance query for the zero address\");\n        \n        return balances[owner];\n    }\n\n    \n    // ownerOf tokenId\n    \n    \n    function ownerOf(uint256 tokenId) public view virtual returns (address) {\n       \n        address owner = owner[tokenId];\n        \n        require(owner != address(0), \"ERC721: owner query for nonexistent token\");\n        \n        return owner;\n    }\n    \n    \n    // Approve\n\n\n    function approve(address to, uint256 tokenId) public virtual  {\n\n         address owner = owner[tokenId];\n\n         address _NFT = getAddress(tokenId);\n\n         require(to != owner, \"ERC721: approval to current owner\");\n\n         IERC721(_NFT).approve(to,tokenId);\n\n    }\n\n\n    \n    //  Is Approved for all\n    \n    function isApprovedForAll(address owner, address operator) public view virtual  returns (bool) {\n        \n        return IERC721(NFT_).isApprovedForAll(owner,operator);\n    }\n    \n    \n    // transfer From \n\n    \n    function transferFrom(address from,address to,uint256 tokenId) public virtual {\n        \n       address _NFT = getAddress(tokenId);    \n\n       IERC721(_NFT).transferFrom(from, to, tokenId);\n       \n    }\n    \n    \n    \n    // safe Transfer from\n    \n    \n    function safeTransferFrom(address from,address to, uint256 tokenId) public virtual  {\n        \n        address _NFT = getAddress(tokenId);\n        \n        IERC721(_NFT).safeTransferFrom(from, to, tokenId, \"\");\n    \n        \n    }\n    \n    \n    // burn\n    \n    \n    function burn(uint256 _tokenId) public virtual  {\n        \n    //    require(msg.sender == IERC721(NFT_).ownerOf(_tokenId));\n        \n        address owner = owner[_tokenId];\n        \n        balances[owner] = balances[owner] -1;\n        \n        numnfts.decrement();\n        \n        delete contractAddress[_tokenId] ;\n        \n        \n    }\n    \n    \n    function setApprovalForAll(address operator, bool approved) public  virtual  {\n        \n        require(operator != msg.sender, \"ERC721: approve to caller\");\n        \n        IERC721(NFT_).setApprovalForAll(operator,approved);\n        \n    }\n    \n    \n    \n    \n}\n\n\n\n\n\n\n\n\n\n",
  "sourcePath": "/home/gokulalex/NFT_MARKETPLACE/contracts/TokenFactory.sol",
  "compiler": {
    "name": "solc",
    "version": "0.8.0+commit.c7dfd78e.Emscripten.clang"
  },
  "schemaVersion": "3.3.1",
  "updatedAt": "2021-10-01T13:02:12.635Z",
  "devdoc": {
    "kind": "dev",
    "methods": {},
    "version": 1
  },
  "userdoc": {
    "kind": "user",
    "methods": {},
    "version": 1
  }
}