{
  "contractName": "TokenSale",
  "abi": [
    {
      "inputs": [
        {
          "internalType": "contract NFT_Data",
          "name": "_NFTData",
          "type": "address"
        }
      ],
      "stateMutability": "nonpayable",
      "type": "constructor"
    },
    {
      "inputs": [
        {
          "internalType": "uint256",
          "name": "",
          "type": "uint256"
        }
      ],
      "name": "IdForSale",
      "outputs": [
        {
          "internalType": "bool",
          "name": "",
          "type": "bool"
        }
      ],
      "stateMutability": "view",
      "type": "function"
    },
    {
      "inputs": [
        {
          "internalType": "uint256",
          "name": "",
          "type": "uint256"
        }
      ],
      "name": "Sale",
      "outputs": [
        {
          "internalType": "string",
          "name": "Type",
          "type": "string"
        },
        {
          "internalType": "address",
          "name": "seller",
          "type": "address"
        },
        {
          "internalType": "uint256",
          "name": "tokenId",
          "type": "uint256"
        },
        {
          "internalType": "uint256",
          "name": "price",
          "type": "uint256"
        },
        {
          "internalType": "string",
          "name": "status",
          "type": "string"
        }
      ],
      "stateMutability": "view",
      "type": "function"
    },
    {
      "inputs": [],
      "name": "Salecount",
      "outputs": [
        {
          "internalType": "uint256",
          "name": "",
          "type": "uint256"
        }
      ],
      "stateMutability": "view",
      "type": "function"
    },
    {
      "inputs": [
        {
          "internalType": "contract NFT",
          "name": "_NewNFT",
          "type": "address"
        },
        {
          "internalType": "string",
          "name": "_Type",
          "type": "string"
        },
        {
          "internalType": "uint256",
          "name": "_tokenId",
          "type": "uint256"
        },
        {
          "internalType": "uint256",
          "name": "_price",
          "type": "uint256"
        }
      ],
      "name": "sellNFT",
      "outputs": [
        {
          "internalType": "uint256",
          "name": "",
          "type": "uint256"
        }
      ],
      "stateMutability": "nonpayable",
      "type": "function"
    },
    {
      "inputs": [
        {
          "internalType": "contract NFT",
          "name": "_NewNFT",
          "type": "address"
        },
        {
          "internalType": "uint256",
          "name": "_tokenId",
          "type": "uint256"
        }
      ],
      "name": "cancelSale",
      "outputs": [],
      "stateMutability": "nonpayable",
      "type": "function"
    }
  ],
  "bytecode": "0x608060405234801561001057600080fd5b5060405161086038038061086083398101604081905261002f91610059565b600180546001600160a01b0319166001600160a01b03929092169190911790556000600455610087565b60006020828403121561006a578081fd5b81516001600160a01b0381168114610080578182fd5b9392505050565b6107ca806100966000396000f3fe608060405234801561001057600080fd5b50600436106100575760003560e01c80630282e5f31461005c57806316f3a95b14610085578063207f09791461009a578063496ef361146100ba578063c0a8d68d146100c2575b600080fd5b61006f61006a36600461060c565b6100e6565b60405161007c9190610693565b60405180910390f35b6100986100933660046105e3565b6100fb565b005b6100ad6100a8366004610522565b610188565b60405161007c9190610716565b6100ad6102db565b6100d56100d036600461060c565b6102e1565b60405161007c95949392919061069e565b60026020526000908152604090205460ff1681565b600081116101245760405162461bcd60e51b815260040161011b906106ec565b60405180910390fd5b60008181526003602052604081209061013d828261042e565b6001820180546001600160a01b03191690556000600283018190556003830181905561016d90600484019061042e565b50506000908152600260205260409020805460ff1916905550565b60006004546001610199919061071f565b6004556040805160a08101825285815233602080830191909152818301869052606082018590528251808401845260068152656f6e53616c6560d01b818301526080830152600086815260038252929092208151805192938493610200928492019061046d565b506020828101516001830180546001600160a01b0319166001600160a01b03909216919091179055604083015160028301556060830151600383015560808301518051610253926004850192019061046d565b50505060008481526002602052604090819020805460ff19166001179055516323b872dd60e01b81526001600160a01b038716906323b872dd9061029f9033903090899060040161066f565b600060405180830381600087803b1580156102b957600080fd5b505af11580156102cd573d6000803e3d6000fd5b509598975050505050505050565b60045481565b6003602052600090815260409020805481906102fc90610743565b80601f016020809104026020016040519081016040528092919081815260200182805461032890610743565b80156103755780601f1061034a57610100808354040283529160200191610375565b820191906000526020600020905b81548152906001019060200180831161035857829003601f168201915b50505060018401546002850154600386015460048701805496976001600160a01b0390941696929550909350906103ab90610743565b80601f01602080910402602001604051908101604052809291908181526020018280546103d790610743565b80156104245780601f106103f957610100808354040283529160200191610424565b820191906000526020600020905b81548152906001019060200180831161040757829003601f168201915b5050505050905085565b50805461043a90610743565b6000825580601f1061044c575061046a565b601f01602090049060005260206000209081019061046a91906104f1565b50565b82805461047990610743565b90600052602060002090601f01602090048101928261049b57600085556104e1565b82601f106104b457805160ff19168380011785556104e1565b828001600101855582156104e1579182015b828111156104e15782518255916020019190600101906104c6565b506104ed9291506104f1565b5090565b5b808211156104ed57600081556001016104f2565b80356001600160a01b038116811461051d57600080fd5b919050565b60008060008060808587031215610537578384fd5b61054085610506565b935060208086013567ffffffffffffffff8082111561055d578586fd5b818801915088601f830112610570578586fd5b8135818111156105825761058261077e565b604051601f8201601f19168101850183811182821017156105a5576105a561077e565b60405281815283820185018b10156105bb578788fd5b8185850186830137908101909301959095525093969395505050506040820135916060013590565b600080604083850312156105f5578182fd5b6105fe83610506565b946020939093013593505050565b60006020828403121561061d578081fd5b5035919050565b60008151808452815b818110156106495760208185018101518683018201520161062d565b8181111561065a5782602083870101525b50601f01601f19169290920160200192915050565b6001600160a01b039384168152919092166020820152604081019190915260600190565b901515815260200190565b600060a082526106b160a0830188610624565b6001600160a01b0387166020840152604083018690526060830185905282810360808401526106e08185610624565b98975050505050505050565b60208082526010908201526f125b9d985b1a59081d1bdad95b881a5960821b604082015260600190565b90815260200190565b6000821982111561073e57634e487b7160e01b81526011600452602481fd5b500190565b60028104600182168061075757607f821691505b6020821081141561077857634e487b7160e01b600052602260045260246000fd5b50919050565b634e487b7160e01b600052604160045260246000fdfea2646970667358221220fe470fd4ce8070e057ff106d078c91149cdd4a12be7ceebf927e52e16b1fc25864736f6c63430008000033",
  "immutableReferences": {},
  "source": "// SPDX-License-Identifier: MIT\n\npragma solidity ^0.8.0;\n\nimport \"./External/Ownable.sol\";\nimport \"./External/SafeMath.sol\";\nimport \"./NFT.sol\";\nimport \"./Data.sol\";\nimport \"./TokenFactory.sol\";\nimport \"./External/ERC721.sol\";\nimport \"./NFT_Data.sol\";\n\ncontract TokenSale {\n    \n    \n    NFT internal _NFT;\n    \n    NFT_Data internal nftData;\n\n    enum SALEType{Fixed,Dynamic,Auction}\n    \n    struct TokenOnSale {\n        \n        string Type;\n        address seller;\n        uint256 tokenId;\n        uint256 price;\n        string status;\n    }\n    \n    \n    // mappings\n    \n    mapping(uint256 => bool) public IdForSale;\n    \n    mapping (uint256 => TokenOnSale) public Sale;\n    \n    uint256 public Salecount;\n    \n    \n    // constructor\n    \n    constructor (NFT_Data _NFTData) {\n         \n       nftData=_NFTData;\n         \n       Salecount = 0;\n      \n        \n    }\n    \n    \n    //  Listing for sale.\n        \n    function sellNFT(\n        \n        NFT  _NewNFT,\n        string memory _Type,\n        uint256 _tokenId,\n        uint256 _price\n        \n    )  public returns (uint256) {\n        \n       \n       Salecount = Salecount+1 ;\n       \n       TokenOnSale memory  list = TokenOnSale ({\n           \n           Type   : _Type,\n           seller : msg.sender,\n           tokenId: _tokenId,\n           price : _price,\n           status: \"onSale\"\n           \n       });\n       \n       Sale[_tokenId] = list;\n       \n       IdForSale[_tokenId] = true;\n       \n       IERC721(_NewNFT).transferFrom(msg.sender,address(this),_tokenId) ;\n       \n       return _tokenId;\n       \n    }\n    \n    //   cancelling the sale item.\n    \n     function cancelSale (NFT  _NewNFT,uint256 _tokenId) external  {\n         \n    //  nftData.updatestatus(_NFT,_tokenId,\"cancelled\");\n    \n      require(_tokenId > 0, \"Invalid token id\");   // token Id should not be 0\n    \n      delete Sale[_tokenId];                       //  deleting Item tokenId\n     \n      IdForSale[_tokenId] = false;                 //  setting to false.\n  \n         \n     }\n\n\n    \n    \n    \n    \n    \n    \n    \n    \n    \n    \n    \n    \n    \n    \n    \n    \n    \n    \n    \n    \n    \n    \n    \n    \n}\n",
  "sourcePath": "/home/gokulalex/NFT_MARKETPLACE/contracts/TokenSale.sol",
  "compiler": {
    "name": "solc",
    "version": "0.8.0+commit.c7dfd78e.Emscripten.clang"
  },
  "schemaVersion": "3.3.1",
  "updatedAt": "2021-10-01T13:02:12.951Z",
  "devdoc": {
    "kind": "dev",
    "methods": {},
    "version": 1
  },
  "userdoc": {
    "kind": "user",
    "methods": {},
    "version": 1
  }
}